:1000000000000120190200000102000003020000AC
:1000100005020000070200000902000000000000C5
:100020000000000000000000000000000B020000C3
:100030000D020000000000000F020000110200008D
:10004000130200001302000031090000690B0000D8
:10005000790B0000130200001302000013020000DD
:10006000130200001302000013020000130200003C
:10007000130200001302000013020000130200002C
:10008000130200001302000013020000130200001C
:10009000130200001302000013020000130200000C
:1000A00013020000130200001302000013020000FC
:1000B0001302000013020000000000000000000016
:1000C00013020000130200001302000013020000DC
:1000D00013020000130200001302000000000000E1
:1000E0000000000000000000000000000000000010
:1000F0000000000000000000000000000000000000
:1001000000000000000000000000000000000000EF
:1001100000000000000000000000000000000000DF
:1001200000000000000000000000000000000000CF
:1001300000000000000000000000000000000000BF
:1001400000000000000000000000000000000000AF
:10015000000000000000000000000000000000009F
:10016000000000000000000000000000000000008F
:10017000000000000000000000000000000000007F
:10018000000000000000000000000000000000006F
:10019000000000000000000000000000000000005F
:1001A000000000000000000000000000000000004F
:1001B000000000000000000000000000000000003F
:1001C000000000000000000000000000000000002F
:1001D000000000000000000000000000000000001F
:1001E000000000000000000000000000000000000F
:1001F00000000000000000000000000000000000FF
:10020000FEE7FEE7FEE7FEE7FEE7FEE7FEE7FEE7C6
:10021000FEE7FEE700F002B8FFF7FCBF0F484FF023
:100220000701884385460E4880470E48016841F41F
:1002300070010160BFF34F8FBFF36F8F00F01AB8EA
:1002400009480A490A4A884207D0521A05D0037859
:1002500001300B700131013AF9D1704700000120E3
:10026000A504000088ED00E04043000000000020ED
:10027000000000203A493B480A1A02D00722914365
:100280008D46394939480A1A06D00722914381F32D
:100290000988022282F3148835483649364A00F02C
:1002A00041F836483649374A00F03CF83648374975
:1002B000374A00F037F837483749384A00F032F803
:1002C00037483849384A00F02DF838483849394A13
:1002D00000F028F838483949394A00F023F83948FD
:1002E0003949002200F036F838483949002200F038
:1002F00031F838483849091A03F0C1FE374A9047A7
:1003000025482649884205D00268043003B4904746
:1003100003BCF7E700208646EC4600200021304A67
:100320009047FEE7884214D0521A12D003460B437E
:1003300013430324234206D1036804300B600431C5
:10034000043AF9D17047037801300B700131013A5A
:10035000F9D17047884202D002700130FAE7704745
:100360000000012000E0002000000120000001202A
:10037000F84800000000002040000020E4030000D6
:10038000E4030000F2420000F848000000000020F2
:1003900000000020404300004043000040430000B4
:1003A0004043000040430000404300004043000041
:1003B00040430000F548000038490000400000209C
:1003C0004000002040000020F8080020F80800202D
:1003D000F8080020F8080020F8280020410200005A
:0403E0000104000014
:1003E40038B5054D044645F001054FF47A40A84759
:1003F400013CFAD138BD00BF4043000008B502F00B
:1004040015FC4FF4FA70FFF7EBFF00210F480F4C77
:1004140002F014FB6420FFF7E3FF0C48282102F0EC
:10042400AFFA4FF4FA70FFF7DBFF2821204602F001
:1004340039FB4FF4FA70FFF7D3FF2046282102F06E
:100444007BFB4FF4FA70FFF7CBFFEEE7C8450000E3
:100454004FF08053D3F83001421C04BF4FF0704377
:1004640093F8E00F831F5842584170474FF0704390
:1004740093F8E02F062A08D1D3F8E80F00F0F00033
:10048400A0F13003584258417047002070470000E3
:10049400024AD2F80034002BFBD0704700E0014040
:1004A40010B5FFF7D5FF40B14FF080538F4AD3F812
:1004B4002433C3F30423C2F84035FFF7D7FF10B148
:1004C4008B4B8C4A5A67FFF7C3FF48B14FF08053F8
:1004D4004FF08042D3F84432C3F34233C2F83C3580
:1004E400FFF7C4FF30B1844AD2F8FC3023F08073A4
:1004F400C2F8FC30FFF7ACFF40B14FF0804300225C
:10050400C3F80C21C3F81021C3F83825FFF7AEFF58
:1005140020B14FF080430322C3F8A025FFF7A6FFC4
:1005240060B1764B0522C3F810260122C3F8882651
:100534000022C3F818263F22C3F814264FF0805334
:10054400D3F83021511C09BF4FF07043D3F8343134
:1005540093F8E02FD3F8E83F08BFC3F30313062A48
:1005640049D1033B012B46D94FF08052644BD2F85A
:100574000414C3F82015D2F80814C3F82415D2F8CB
:100584000C14C3F82815D2F81014C3F82C15D2F89B
:100594001414C3F83015D2F81814C3F83415D2F86B
:1005A4001C14C3F84015D2F82014C3F84415D2F82B
:1005B4002414C3F84815D2F82814C3F84C15D2F8FB
:1005C4002C14C3F85015D2F83014C3F85415D2F8CB
:1005D4003414C3F86015D2F83814C3F86415D2F88B
:1005E4003C14C3F86815D2F84014C3F86C15D2F85B
:1005F4004424C3F87025FFF72BFF48B14FF0805314
:100604004FF08042D3F8583203F04F03C2F8E43E6F
:10061400FFF71EFF48B14FF08043D3F80024D20700
:1006240044BF6FF00102C3F800244FF08053D3F8A5
:100634003021062A0BD1D3F83431033B022B81BF7E
:10064400304AD2F83C3743F48063C2F83C372A4A34
:10065400D2F8883043F47003C2F88830BFF34F8F68
:10066400BFF36F8F4FF08053D3F83021062A0CD19B
:10067400D3F83431033B032B81BF4FF01023D3F85D
:1006840008224FF08043C3F858254FF01023D3F8C5
:100694000022002A03DBD3F80432002B22DA1A49A1
:1006A40001234FF01020C1F804351524FFF7F0FEA4
:1006B400C0F80042FFF7ECFEC0F80442FFF7E8FE82
:1006C4000023C1F80435FFF7E3FEBFF34F8F0A4957
:1006D4000E4BCA6802F4E0621343CB60BFF34F8F42
:1006E40000BFFDE70A4B0B4A1A6010BD0030014001
:1006F40000C007400DF0ADBA00ED00E0005000402E
:1007040000C000400010004000E001400400FA0571
:10071400000000200090D0031FB503788DF800304E
:100724008388ADF8043083688DF80630C3688DF88B
:100734000730036902934369054A0393054B6846EE
:1007440053F8213052F82110984705B05DF804FBA6
:100754004000002048000020024B4FF4807043F01A
:1007640001031847504300002DE9F047154690F85F
:100774000090324A42F82950314A42F829304B7BE2
:1007840007460C4663B30868496882008B0002F18F
:10079400A04203F1A04340F20C66C2F800674FF098
:1007A400010AC3F800674FF0A0460AFA00F00AFAFB
:1007B40001F1C6F80805C6F8081540F20D61C2F843
:1007C4000017C3F80017FFF7C7FF4FF00008D6F86B
:1007D40010356268D340DB070DD5B8F1000F1DD189
:1007E400002D184A4B4608BF2A462146381DBDE84D
:1007F400F04700F0C7B923680AFA03F3C6F80C35CA
:10080400FFF7AAFF23680AFA03F3C6F8083508F1CC
:100814000108FFF7A1FFB8F1090FD8D163680126D9
:100824004FF0A04806FA03F3C8F80C35FFF794FF1D
:1008340063689E40C8F80865D2E700BF48000020FE
:10084400400000201D0700001FB503788DF800301C
:100854004368019383688DF80830C368054A03939D
:10086400054B684653F8213052F82110984705B0DB
:100874005DF804FB54000020580000201FB50378E5
:100884008DF800304368019383688DF80830C3689D
:10089400054A0393054B684653F8213052F821105A
:1008A400984705B05DF804FB540000205800002070
:1008B400F0B5194B90F800C091F81DE089B043F8E9
:1008C4002C20164B16460A6943F82C20144B0C4670
:1008D40003F80CE007460FCC6D460FC594E80F00F3
:1008E40085E80F00CDF810C0BEF1000F09D0002E2E
:1008F4000C4A694608BF3246381D00F043FE09B071
:10090400F0BD002E084A694608BF324607F10C00C4
:1009140000F020FCF3E700BF580000205400002042
:10092400500000204D08000081080000014B1B68A6
:10093400184700BF5C00002038B50A4B98420C46AB
:100944000CD1002001F012F8074B1D7915B90122D2
:100954001C601A71002001F00BF80DB9002038BD9D
:100964001120FCE7002000405C000020034B98426B
:1009740001BF034B00221A601A7170470020004027
:100984005C000020002382B0435043580193019B34
:1009940002B070470A7B0346032A29D8DFE802F035
:1009A400212519028A68500304D5D3F84C25086917
:1009B400904207D18A6852031AD4D3F84C25496966
:1009C400914215D000200622C3F80005C3F8002583
:1009D4007047D3F84C2508699042F3D1D3F83C25ED
:1009E400EDE7D3F84C250969EAE7D3F83C25FAE7A3
:1009F40001207047F0B5D0F8243187B005460C4685
:100A0400EBB14FF49271FFF7BDFFD0F80431B3B9E5
:100A1400A368C0F808330223A360A368C0F80433B2
:100A2400D0F860311BB1D0F800329B0502D4012309
:100A34002B626B61012384F82E3007B0F0BDD5F82A
:100A44000431002B3FD04FF482712846FFF79AFF00
:100A5400266A770609D494F82E3033B92146FFF775
:100A640099FF80F0010084F82E0076073DD404F14C
:100A74000C070FCF01AE0FC63B6833604FF4B07163
:100A84002846FFF77FFF4FF4AE71FFF77BFF94F822
:100A9400303013B194F82E303BB30023C5F8003244
:100AA400A3602E4BC5F8083345F30733002B1CDB3A
:100AB4005A09012103F01F03994002F16003284AF7
:100AC40042F8231011E04FF4A4712846FFF75AFFAF
:100AD400237B5BBB04F10C070FCF01AE0FC63B6851
:100AE400336094F83030002BD8D0D5F8C434C5F82E
:100AF400C43498072CD459072CD4DA072CD494F88E
:100B04002E309B00DBB28DF8003094F830300BB9F6
:100B140084F82F30236A5B0703D594F82E30002B1A
:100B24008BD0D4E900316846984786E74FF40073C8
:100B3400C5F8003240F20223A36003F1CE73C5F876
:100B44000833A368C5F804330123AB602B6274E750
:100B54000123D8E70223D6E70323D4E702029C014A
:100B640000E100E001490248FFF744BF64000020AF
:100B74000030004002494FF04020FFF73BBF00BF68
:100B8400980000202DE9F84F0679304D4FF0340AD3
:100B94000AFB06FA05EB0A079B4697F82D308046B8
:100BA4000C469146002B4DD1294B006853F8261072
:100BB400FFF7C2FE002847D12168637B87F83230F3
:100BC40001F5E0724FF0A043B860C7F804B087F8AD
:100BD4002F0087F8300040F20C6745F80A9043F87C
:100BE4002270626802F5E07C43F82C70D8F800307B
:100BF400C3F80815C3F80C25A268C3F82425B9F175
:100C0400000F12D0227B43F307335201002BD2B2E0
:100C140013DB1049CC1884F8002301225C0903F08B
:100C24001F0302FA03F341F82430342303FB06556F
:100C3400012385F82D30BDE8F88F074903F00F0331
:100C4400CA54F2E70820F6E71120F4E76400002014
:100C54003C45000000E100E014ED00E00368027987
:100C64000621C3F80015044B342101FB0233022290
:100C740083F82D20704700BF640000202DE9F8435D
:100C8400B14F90F8048004684FF0340C0CFB087CDE
:100C940000238CF82E30CB6803F06043B3F1005F7F
:100CA4000D46164603D010252846BDE8F883A74B09
:100CB400C4F808339CF82F302BB1DCF80830C4F8A2
:100CC40004331125F0E712F0140F0CBF01230023A5
:100CD4008CF82F308946B9E80F000CF10C0EAEE801
:100CE4000F00D9F80030CEF80030C6F300138CF8AA
:100CF4003030CCF820606B78C4F8883520464FF447
:100D04008271FFF73FFE4FF49271FFF73BFE4FF401
:100D1400B071FFF737FE4FF4A471FFF733FE16F0FE
:100D2400010318BF0123C4F8503516F0020318BF9D
:100D34000123C4F840352A78032A00F2B580DFE89D
:100D440002F087A06902D5F8109009F06043B3F16E
:100D5400005FA8D14FF48073E968C4F800326B686F
:100D6400C4F84415C4F848354FF4A871FFF70AFED7
:100D740001232362A360D4F85031002BFBD04FF43D
:100D8400A8712046FFF7FEFDAB68C4F84495C4F88B
:100D94004835342303FB08734FF4802199600823FA
:100DA4000025310703D4032A1CBF0122E250342357
:100DB40003FB08F3FA18FB58002B78D14FF0010914
:100DC400D4F84821D4F80431002B40F08880003A4C
:100DD40018BF0122D4F82431002B00F087804FF48F
:100DE40092712046FFF7CEFDD4F86011D4F800329A
:100DF40009B1980506D4C4F82090C4F814900029C9
:100E0400DED00022D90571D54FF4A4712046FFF736
:100E1400B9FDD5E76B68E968C4F84415C4F84835EA
:100E24002B6903F06041B1F1005F7FF43CAFA96826
:100E3400C4F834354FF48453C4F83815C4F8003278
:100E4400342303FB08730221996001232362A6E77C
:100E54006B68E968C4F8441516F0200FC4F84835E7
:100E64004FF0340308D04FF48071C4F8001203FB30
:100E740008734FF48021E7E74FF40071C4F80012BF
:100E8400DFE76B68E968C4F83415C4F838354FF403
:100E94008053C4F80032342303FB087302219960A1
:100EA4000123236200237BE70823072579E77307DF
:100EB40044BF00239360760606D4342303FB0873EF
:100EC4009A6842F002029A60342303FB08739A681A
:100ED40042F400729A609B68C4F80433E4E64FF469
:100EE40082712046FFF74EFD012273E7002A3FF48A
:100EF40067AF3421D4F8C434C4F8C43401FB087295
:100F0400002082F82F0093B113F0010F14BF4FF4A7
:100F14000245032548F2012213F0020F18BF1546BB
:100F240013F0040F48F2022318BF1D46BCE67306F3
:100F34003FF5BAAE08FB01712046FFF72BFD0028F0
:100F440008BF0325B0E600BF6400002002029C0134
:100F540010B586B00024CDE904249DF820208DF836
:100F64000510520101A9CDE902348DF80440FFF7C0
:100F740085FE06B010BD10B586B00124029300238F
:100F8400CDE903328DF805101A4601A98DF8044005
:100F94000593FFF773FE06B010BD002382B04350E3
:100FA40043580193019B02B070470A4610B54FF4B1
:100FB4008E71FFF7F2FF136A9168C95C136A0133FB
:100FC4001362C0F81C1510BD8B690A4610B54FF4A6
:100FD400847123B9FFF7E1FFD0F8183510BDFFF78E
:100FE400DCFF536AD168D0F81805C854536A01333A
:100FF4005362F3E71FB501238DF80030044BCDE9AC
:101004000110D3E900126846904705B05DF804FB6F
:10101400CC00002030B54D4DD5F804339A0585B089
:1010240051D5D5F82431002B4DD04FF49271284678
:10103400FFF7B3FF4FF40173C5F80833444B93F83B
:1010440029200AB901226A60404902228DF8002051
:10105400D1F88024C1F8802403929A690292DA6854
:1010640001920022C3E906226846D3E900129047A0
:101074003648D0F81C315BB1354A5169136A99423C
:101084004DD992F82830002B49D11146FFF78DFF36
:101094002E48D0F84431002B56D04FF4A271FFF7FC
:1010A4007CFF2B4B93F829200AB1012202609A6934
:1010B400002A49D0586AD96800229A6105B0BDE86F
:1010C4003040FFF797BFD5F804335B07D0D5D5F888
:1010D4000831002BCCD01E4C1C482146FFF774FF6E
:1010E400636AA2699A42C3D1E369E1684BB1A3611F
:1010F4002369E3600023606AE3616362FFF77AFFB8
:10110400B6E794F829300BB901236B600F4B4FF409
:101114000172C3F808230023606AA361EEE70B4859
:101124004FF48E71FFF739FF5369002BB0D051692A
:101134000291002391688DF8003001915361684653
:10114400D2E900139847A3E705B030BD0020004062
:10115400CC0000202DE9F843524D90F804802C2354
:1011640003FB0853064693F82A300C469146002B9D
:1011740040F094804C490068FFF7DEFB07460028E6
:1011840040F08E8021683368481C0BD04FF0A0409B
:1011940001228A40C0F8082501F5E0724FF0030CE3
:1011A40040F822C06068421C1FBF00F5E0724FF097
:1011B400A04C4FF0000E4CF822E0A269C3F824259D
:1011C40094F814C0627DBCF1010F4CEA0202C3F82A
:1011D4006C25C3F81405C3F80C151DD1A1684A1C6D
:1011E4001FBF01F5E0724FF0A0404FF0000C40F833
:1011F40022C0E268501C0BD04FF0A04C012090405C
:10120400CCF8080502F5E0704FF0030E4CF820E02E
:10121400C3F80825C3F810152C2303FB08F3EA18B8
:10122400C2F804902269EA50B9F1000F1ED0306868
:10123400227F4FF48E71FFF7B0FE4FF4A271FFF7D7
:10124400ACFE1A4BC0F8043340F307335201002BB1
:10125400D2B21EDB1649C81880F8002301225809AF
:1012640003F01F0302FA03F341F820303368042229
:10127400C3F800252C2303FB08530022C3E90622EC
:1012840083F829205A61012283F82A203846BDE8D0
:10129400F883084903F00F03CA54E7E70827F5E782
:1012A4001127F3E7CC000020191000008000020091
:1012B40000E100E014ED00E0F8B503680579304C76
:1012C4000022C3F800252C2202FB05425268A2B179
:1012D4002C4AC3F8082343F30733002B0DDB5A09C8
:1012E400012103F01F03994002F12003264A42F82A
:1012F4002310BFF34F8FBFF36F8F0068D0F80C65D6
:10130400D0F81415D0F80835D0F810254FF0FF3771
:10131400BE42C0F8147518BF06F5E076C0F80C7527
:10132400C0F80875C0F810751EBF4FF0A0474FF005
:10133400020C47F826C04E1C1FBF4FF0A04601F513
:10134400E071022746F82170511C1FBF4FF0A041E5
:1013540002F5E072022641F822605A1C1FBF03F511
:10136400E0734FF0A042022142F82310FFF7FEFA87
:101374002C2303FB0544002384F82A306360F8BD62
:10138400CC0000208402020000E100E00279044B5A
:101394002C2101FB02335869003818BF0120704723
:1013A400CC0000202DE9F84F074690F804808946C8
:1013B4009346FFF7EBFF0446002839D11E4E2C2537
:1013C40008FB056A4FF48E71CAF814B0CAF82000FD
:1013D4008AF828003868CAF80890FFF7DEFD012370
:1013E40083605146FFF7E1FDDAF8043055460BBB44
:1013F400DAF814402B6A9C4210D8D0F81C31002B28
:10140400FBD00123C36000202C2303FB08660023C8
:101414007361BDE8F88F95F828303BB9D0F81C31DA
:10142400002BF8D05146FFF7C0FDE3E70F20EBE7B0
:101434001120EEE72046ECE7CC000020002382B028
:10144400435043580193019B02B070471FB50123D9
:101454008DF80030044BCDE90110D3E90012684641
:10146400904705B05DF804FBF80000207FB5434ABF
:10147400D2F82461002E60D010464FF49271FFF729
:10148400DDFF02238DF80030D2F88034C2F88034B6
:101494000393D2F83C350293394BDA680192002267
:1014A400C3E906226846D3E9001290473348D0F8CE
:1014B400443173B14FF4A271FFF7C0FF304B9A6906
:1014C4003AB10022D0F83C05D968C3E90622FFF7F7
:1014D400BDFF2A48D0F82031ABB14FF49071FFF72B
:1014E400ADFF0123C360264B5A6962B1D0F84C1595
:1014F4000291002299688DF8002001915A61684692
:10150400D3E9001290471D48D0F858319BB14FF4ED
:10151400AC71FFF793FF1A4B5A6962B1D0F84C15BE
:101524000291002299688DF8002001915A61684661
:10153400D3E90012904704B070BDD2F81031002BEB
:10154400B4D04FF488711046FFF778FF0C4BD2F8F3
:101554003C0599698842A9D1DC69D96864B1D2F89B
:10156400005225F02005C2F800521A699C61DA6025
:10157400DE61FFF76BFF99E79C61FAE7002000400A
:10158400F80000202DE9F843574D90F804802423F7
:1015940003FB0853064693F820300C469146002B73
:1015A40040F09E8051490068FFF7C6F907460028BD
:1015B40040F0988021683368481C0BD04FF0A0405D
:1015C40001228A40C0F8082501F5E0724FF0030CAF
:1015D40040F822C06068421C1FBF00F5E0724FF063
:1015E400A04C4FF0000E4CF822E0A269C3F8242569
:1015F40094F814C0627DBCF1010F4CEA0202C3F8F6
:101604006C25C3F80C15C3F814051DD1A1684A1C38
:101614001FBF01F5E0724FF0A0404FF0000C40F8FE
:1016240022C0E268501C0BD04FF0A04C0120904027
:10163400CCF8080502F5E0704FF0030E4CF820E0FA
:10164400C3F80825C3F81015242303FB08F3EA188C
:10165400C2F804902269EA50B9F1000F2AD0306828
:10166400227F4FF48871FFF7E9FE4FF49071FFF782
:10167400E5FE4FF49271FFF7E1FE4FF4A271FFF71C
:10168400DDFE4FF4AC71FFF7D9FE194BC0F80433FB
:1016940040F307335201002BD2B21CDB1549C818A2
:1016A40080F800230122580903F01F0302FA03F310
:1016B40041F8203033680822C3F80025242303FBB3
:1016C40008550023C5E906336B61012385F82030F2
:1016D4003846BDE8F883084903F00F03CA54E9E724
:1016E4000827F5E71127F3E7F8000020711400003C
:1016F4001003420000E100E014ED00E0F8B5424CB4
:101704000579242303FB054302465B680068A3B103
:101714003E4BC0F8083340F30733002B0DDB590967
:10172400012603F01F039E4001F12003384941F8CC
:101734002360BFF34F8FBFF36F8FD0F8003223F0D5
:101744002003C0F80032242303FB05439E692EB115
:101754004FF4A271FFF772FE012343604FF4AC71A2
:10176400FFF76CFE0123C360D0F85831002BFBD087
:101774001EB1D0F84431002BF6D00023C0F8003558
:101784001368D3F80C75D3F81465D3F80825D3F887
:1017940010154FF0FF3C6745C3F80CC518BF07F59B
:1017A400E077C3F814C5C3F808C5C3F810C51EBF55
:1017B4004FF0A0434FF0020C43F827C0771C1FBF23
:1017C4004FF0A04306F5E076022743F826704E1C3E
:1017D4001FBF01F5E0714FF0A043022643F82160DA
:1017E400531C1FBF4FF0A04302F5E072022143F8DF
:1017F4002210FFF7BBF8242303FB0544002384F8DD
:1018040020306360F8BD00BFF800002010034200E0
:1018140000E100E00279044B242101FB0233586902
:10182400003818BF01207047F800002001F0604321
:10183400B3F1005F2DE9F04781460E46924636D15A
:1018440090F80480FFF7E6FF044690BB1B4FD9F8DD
:101854000020242505FB08754FF490711046C5F847
:1018640014A0AE60FFF7EAFD4FF4AC71FFF7E6FD9C
:101874006B69C2F84465C2F84835012393606B680C
:10188400CBB9D2F82031D2F858010343F9D060B96A
:101894000123D360D2F85831002BFBD0242303FB5F
:1018A400087700237B61BDE8F0870F20F6E710205E
:1018B400F9E71120F7E72046F5E700BFF80000201C
:1018C4001FB50021039001AA44F20100CDE90111E2
:1018D40000F004F805B05DF804FB000038B572B6FA
:1018E40000F04EFE00F008FD0028FBD1104B114C17
:1018F400114D1249E41AE408240444F0010000F0F4
:101904003BFED5F8F030DB0700D500BE0C4944F0AF
:10191400020000F031FEBFF34F8FEA68094B02F476
:10192400E0621343EB60BFF34F8F00BFFDE700BFDE
:10193400F44200001443000000ED00E06A4300009C
:10194400764300000400FA0572B6024A13680133B4
:10195400136070471C010020034A1368013B1360A5
:1019640003B962B6704700BF1C010020FFF7ECBF4B
:10197400FFF7F2BF10B5034653E8000F0A4643E8E9
:10198400002494F0000FF7D110BD10B5034653E8BE
:10199400002F42EA010043E8000494F0000FF6D15E
:1019A40010BD10B5034653E8000F00EA010243E8F6
:1019B400002494F0000FF6D110BD10B5034653E88F
:1019C400002F02EB010043E8000494F0000FF6D16D
:1019D40010BD10B5034653E8002FA2EB010043E805
:1019E400000494F0000FF6D110BD0121FFF7CDBF24
:1019F4000021FFF7D6BF38B504460020FFF7B6FF35
:101A04002268616813688B4213D9591E116013F858
:101A1400013C208AE56800FB0355A3685B1A117931
:101A2400DBB2994200D213710020FFF7A1FF2846D0
:101A340038BD0025F8E738B5054600200C46FFF709
:101A440095FF2A681368591C1160EA68A41A2A8A47
:101A5400B4FBF2F41C70BDE838400020FFF788BFE7
:101A6400826810B504462AB1436901680069984741
:101A74000023A36010BD0EB403B5039921B104ABD8
:101A840001AA019300F076F802B05DF804EB03B00C
:101A940070470A2938B504460D4602D10D21FFF7D7
:101AA400F8FFA3682268591CA160D554D4E9013217
:101AB4009A4204D32046BDE83840FFF7D1BF38BD71
:101AC4002DE9F84F9946DDE90A43154682468846D2
:101AD4000A460127AA420FD24F4538BF4F4613F09A
:101AE400010B01D164B900240126B9F1010F1CD9FD
:101AF40009F1FF396E43F8E70137B2FBF5F2E9E784
:101B04009B0710D5B9F1000F0CBF30262026BC422C
:101B1400EAD9013C31465046FFF7BBFF002CE2D026
:101B2400BC42F6D1E0E72026F1E7B8FBF6F39D428C
:101B3400E0D9DFF83C90B8FBF6F3504619F80310EF
:101B440006FB1388FFF7A5FF3346AB42B6FBF5F659
:101B5400F1D2BBF1000F00D034B9BDE8F88F2021D9
:101B64005046013CFFF795FFBC42F8D8F5E700BFAB
:101B7400444500002DE9F74F064690460F460029DC
:101B840000F0528117F8011B49B9337B002B00F098
:101B94004B81304603B0BDE8F04FFFF761BF252904
:101BA40040F0BC8000253A4612F8013B2D2B25D08D
:101BB400302B27D02B2B28D000242A2B07F101020D
:101BC40026D1D8F80030191D1B68C8F800101C4431
:101BD40017463B782E2B27D101374FF0000A0A20F5
:101BE400394611F8012BA2F1300CBCF1090F1DD8B4
:101BF40000FB0A22A2F1300A0F46F1E745F0010585
:101C04001746D0E745F00205FAE745F00405F7E783
:101C140012F8013CA3F130010929DAD80A2101FBA9
:101C24000434303C1746C8E74FF0000A3A4612F82D
:101C3400011B01F0FB0068281746F8D0782909D861
:101C44006F290BD8632963D020D8252966D0582959
:101C540000F094803B78002B94D196E770390829E2
:101C6400F8D801A252F821F0031E0000591C00000C
:101C7400591C0000951D0000591C00006B1D00003C
:101C8400591C0000591C0000811D0000642901D06A
:101C94006929DFD1D8F80020D2F800B0111D8BEAF1
:101CA400EB72C8F80010A2EBEB724FF001090A21A5
:101CB400092A37DCD14538BFD1462CB1BBF1000F1E
:101CC40001DB6A0700D5013CAB0702D5BAF1000F6E
:101CD40003D0E80701D454BB0024BBF1000F32DA6F
:101CE400CBF1000B2D213046FFF7D3FE05F00302A4
:101CF400022A04D1BAF1000F01D144BB0024CDE97A
:101D0400004553460A2259463046FFF7D9FEA1E75B
:101D1400D8F800301A1D1978C8F800203046FFF7AB
:101D2400B8FE97E709F10109B2FBF1F2C0E7A1455A
:101D3400D3D2013C20213046FFF7ABFE002CCBD0A0
:101D4400A145F6D1C9E76907D0D52B21CBE7A14539
:101D5400D5D2013C30213046FFF79BFE002CCDD07C
:101D6400A145F6D1CBE7D8F800100A1DC8F8002029
:101D7400CDE9004553460A220968C5E7D8F80010A2
:101D84000A1DC8F800205346CDE900451022F3E7A8
:101D9400D8F800301A1DC8F8002015F00105D3F852
:101DA400009024D1B9F1000F03D0484602F071F934
:101DB4000546AC421DD809F1FF3919F8011F002965
:101DC4003FF448AF3046FFF764FEF6E7304601358E
:101DD400FFF75FFE19F805100029F7D1A542BFF4FB
:101DE40039AF20213046013CFFF753FEF6E70025CA
:101DF400F0E720213046013CFFF74BFED9E7D8F845
:101E040000301A1DC8F80020302130461C68FFF746
:101E140040FE78213046FFF73CFE00220823CDE93E
:101E24000032214610226FE703B0BDE8F08F00BFF7
:101E34002DE9F84FB0F806A04579D2F800B09DF826
:101E440028900AFB05F5043D88460BEB0301A942E3
:101E540003F1040488BFA5EB030BB4FBFAF60746B1
:101E64000AFB1644C2F800B04EB9AAEB04055D455E
:101E740028BF5D46BBF1000F04D1BDE8F88F3F6871
:101E8400013EF1E7043408EB06003C442A46B9F16C
:101E9400000F0DD02146ABEB050B02F04FF9DA45EC
:101EA4002E443F6855464FF0000428BF5D46E1E7E5
:101EB40001462046EFE7F8B546790146721E05460D
:101EC400002393422D6803D30024A64202D8F8BD10
:101ED4000133F6E70F682846FFF7ADFD01343946B4
:101EE400F3E72DE9F041078ACD1C0646FFF783FD91
:101EF400043F3D440446B5FBF7F5D0B14FF480737D
:101F0400EDB2C7808380013D066080460027AF4262
:101F140010D23046FFF76FFD40B16379013363712E
:101F24000137C8F8000006608046F0E72046FFF756
:101F3400C2FF00242046BDE8F08101210430FFF7F0
:101F44003CBD10B5012104460430FFF742FDC0B288
:101F540020B92046BDE81040FFF7ADBF10BD1FB546
:101F640003920022009203AAFFF762FF05B05DF816
:101F740004FB1FB503920122009203AAFFF758FF46
:101F840005B05DF804FBF0B595B01D46164608464D
:101F94000C46FFF7D2FF1A9B0D93CDE90865002587
:101FA4002B46082205A920460A958DF82C500C953D
:101FB400FFF7DFFF079B0293069B03939DF8143002
:101FC4008DF8115003F00302012A1DD1BDF814202D
:101FD400059DC3F3C203C2F383168DF81030B2001B
:101FE40008230EA92046FFF7C4FFC5F3952508ABC7
:101FF4000093324602AB0EA9284600F02FFB204680
:10200400FFF79FFF15B0F0BD022AF8D1BDF81650B6
:10201400C3F3C203C5F389158DF810300827082DC2
:102024002E4628BF08263B4632460EA92046FFF717
:10203400A0FFAD1B08AB02AA31460EA8374400F03E
:1020440071FB002DEBD1DAE7014B01221A707047C6
:10205400210100207047000070B50E4D06460FCDDB
:1020640088B06C460FC495E80F00002E84E80F007A
:10207400094A0A484FF0060308BF00226946009344
:10208400FEF716FC08B1FFF71BFC054B1E7008B0E9
:1020940070BD00BF604500004D200000040000201A
:1020A4002001002007B5044B0093044A4023FFF7A6
:1020B4006AFF03B05DF804FBC52000002201002084
:1020C40038B50D480D4C0E4D002323700378EB5C9E
:1020D400D2B263B10430FFF7A9FB08B1FFF7F0FBFC
:1020E400084B1B7813B12378002BFCD038BD0C307F
:1020F400FFF758F9F1E700BF040000202101002098
:10210400500000202001002008B50848084A037840
:10211400D35C3BB10430FFF7F1FABDE8084000207E
:10212400FFF79ABF0C30FFF7C7F8F6E7040000206A
:1021340050000020037813F0040215D003F00303C9
:10214400012B03D0022B09D0012070470B680288B1
:102154000233C2F3831213440B60F5E70B68428821
:10216400023303EB9213F7E7104670472DE9F04F63
:10217400414C884685B00546871C00201646FFF76B
:10218400F5FB6268C8F80020A36803F580739B1A06
:1021940004F21C4804F5836A04F21449BB4217D3C1
:1021A4000021002E63D005F00F05AD0145F00505B3
:1021B40065F30F016368DAB203323B4444F822103A
:1021C40000206360FFF7D4FB012005B0BDE8F08F69
:1021D40001214046FFF7F1FB5046FFF706FC484655
:1021E400FFF703FCA0680090C0B2033004EB80004A
:1021F4006946FFF79FFF20BB009BDAB204EB820223
:10220400D16801919A1C0133DBB204EB8303009281
:10221400D3F80CB001F00303012B20D0022B13D010
:1022240083464846FFF7E4FB08B1009BA360594688
:102234004046FFF7C2FBA368626803F580739B1AEC
:10224400ACE79DF80000D0E7BDF80630C3F389136E
:1022540003334FEA1B4B02EB93030093E1E7BDF812
:102264000430C3F383134FEA1B4B1344F5E7AD0566
:1022740045F006019EE700BF6401002030B50A4C1A
:1022840071B10A4A0A49121BD20800239A4201D1A9
:10229400002030BD31F82350854202D00133F5E7E8
:1022A400034654F83300F4E7F44200001C430000F2
:1022B40000000020094B013903EBC000032909D8B1
:1022C400DFE801F0020A0406022070470079704733
:1022D400407970470020704704207047F4420000A2
:1022E40070470000034BD3E90130C31A58425841E8
:1022F400704700BF640100202DE9F04385B0FFF76B
:10230400F1FF002874D1724CC4F81804BFF34F8F46
:10231400A0680090C0B2033004EB80006946FFF768
:1023240009FF009B18B1D4F81824002A5CD0DAB253
:102334009F1C013304EB8202DBB204EB8303D268FB
:10234400DB68029302F00303022B0192009758D139
:10235400BDF806305F48C3F389184646502E28BF9F
:10236400502666F38F1306F10801ADF80630FFF727
:10237400B8FD0546002800F09580FFF7DEFD002338
:1023840001A908222846FFF7EAFDFB43DBB201332B
:10239400F9B20331B6EB830F4FEA830904EB8101F1
:1023A4002CD908234A46A6EB09062846FFF7D7FD91
:1023B400F6B2494909F10803324608F103082846F0
:1023C40007EB9807FFF7CBFD0097D4F81834D4F83F
:1023D4001064002B55D02846FFF7B3FDFFF782FFAA
:1023E40080F00100C0B204E062689A4204D8A2609E
:1023F400002005B0BDE8F083D8B28CE7082332464C
:10240400DBE7012B4ED1BDF804303248C3F383110E
:10241400062928BF062161F38913023101F00F0157
:102424008900ADF80430FFF75CFD0546002839D07B
:10243400FFF783FD0023082201A92846FFF78FFD3B
:102444000026BDF80420C2F38312B300B24203F1A4
:102454000803BAD900994A1CC9B20331009204EBAB
:10246400810104222846FFF77AFD0136E9E7F36883
:102474005B7923B1336829461B6830469847F36873
:102484001E68002EF3D12846FFF75BFD3046FFF7A8
:102494006DFAD4F818340BB9009BA3600020FFF741
:1024A40067FA9BE7D4F8104454B90C4B0C480D4917
:1024B400C01AC008000440F0020000F05DF88DE787
:1024C400236820469B689847E3681C68ECE700BFD4
:1024D400640100202C43000070010020F44200003D
:1024E40014430000944300002DE9F34704460E46CC
:1024F400924601A9012218469946FFF737FE1C4F60
:1025040010B3019D4FF00008AA1CC84508EB020156
:1025140025D118480021FFF72DFA80F3100000049C
:1025240040EA1440E4006B1C04F03804DBB2EDB262
:1025340044F0010407EB8303033544EA881444EAB6
:102544008624D86047F825403B781BB1FFF7D4FEBA
:102554000028FBD1FFF7C4FE02B0BDE8F087C9B282
:1025640007EB81015AF82830CB6008F10108CCE769
:10257400640100208005002000231A46FFF7B4BF41
:1025840038B5084B0125D3F810441D7004B938BD83
:10259400E3685D71236820465B689847E3681C68BC
:1025A400F4E700BF6401002010B5037A052B0C4644
:1025B4000FD0437A23B1084A08492046FFF75BFA53
:1025C40007492046FFF757FA2046BDE81040FFF7B9
:1025D40047BA002AF8D0F3E7A9430000AE4300004D
:1025E400CE430000C38873B504460D4633B1144A84
:1025F40000921449144A2846FFF73DFA217A052926
:102604001CD0637A4BB1A088FFF754FE0F4B1049DE
:1026140053F820202846FFF72EFA227A0D4BA08883
:1026240053F822600021FFF729FE0B490346324686
:10263400284602B0BDE87040FFF71DBA02B070BD75
:10264400A9430000B9430000B143000080450000E5
:10265400AE430000A4450000D14300002DE9F0433F
:1026640085B01F460C9D002395F80C902B730646ED
:102674000C46904629463846FFF7B4FFB8F1060FDA
:1026840009D8DFE808F00412181F28334000314647
:102694002846FFF7F0F9002229463846FFF784FF61
:1026A40085F80C9005B0BDE8F083226831462846D1
:1026B400FFF7E1F9EFE7D4E9002331462846FFF7B5
:1026C400DAF9E8E7A3680093D4E900233146284601
:1026D400FFF7D1F9DFE7E3680193A3680093D4E936
:1026E400002331462846FFF7C6F9D4E7236902934D
:1026F400E3680193A3680093D4E900233146284694
:10270400FFF7B9F9C7E76369039323690293E368A1
:102714000193A3680093D4E9002331462846FFF7C8
:10272400AAF9B8E708292DE9F84F80460E4617465E
:102734001C463BD8002593F80C901D73194610468F
:10274400FFF750FFDFF888A0DFF888B0AE422FD93A
:1027540018F8052059462046FFF78DF90135082D54
:10276400F4D11949DFF870B02046FFF784F94FF02F
:10277400000A564523D918F80A507E2D1DD828463C
:1027840001F06BFD002814BF2A462E22594620462C
:10279400FFF771F90AF1010ABAF1080FE9D1012230
:1027A40021463846FFF700FF84F80C90BDE8F88F07
:1027B40051462046FFF75FF9D0E72E22E6E70349AA
:1027C4002046FFF758F9E5E7E5430000E34300003E
:1027D400E1430000DB430000E74300000369C268F3
:1027E40093429CBF81685B18013B981A70472DE99E
:1027F400F041D0E902840546A8EB040640689642FD
:1028040020440F46144404D901F098FCEC60BDE860
:10281400F0813246A4EB080401F090FC686822467B
:10282400B919F1E72DE9F843C56806468946174604
:102834004FF000083369B46870689D4228BF1B19C3
:10284400641BBC4203F1FF3328BF3C465B1B9C4224
:1028540028BF1C4649462844224601F06FFCB36851
:102864002544AB4208BF00253F1BA044A144F560AA
:10287400E0D14046BDE8F88310B5114C114AA2617D
:102884000223C4E90433104BE361A2644FF40073E0
:102894000E4A0F492362E26400231022E01DA36262
:1028A4006362E362A3656365E365226501F02EFC60
:1028B4000849204601F02AFC2023A37110BD00BF63
:1028C40064080020354400006406002054060020FB
:1028D4003E44000042440000F8B5144B182700FBA6
:1028E40007751D4407FB00330E46DB6A012B1446B3
:1028F4000AD0022B14D023B92846FFF76FFF844275
:1029040008D900242046F8BD2846FFF767FF844213
:1029140028BF0446224631462846FFF768FFF1E700
:102924002846BDE8F840FFF77DBF00BF64080020DB
:1029340070B50B4B1B7804460D4616460BB9FFF7D2
:102944009BFF0020FFF712F8324629462046FFF786
:10295400C3FF04460020FFF70BF8204670BD00BFFC
:102964006408002038B5054D044645F001054FF4D0
:102974007A40A847013CFAD138BD00BFC0450000E9
:1029840030B587B004460D4600F04AF920B900F08E
:102994004DF9284800F08CF942F23F03ADF80830B5
:1029A4003E23ADF80C300723ADF8103040F63D431C
:1029B400ADF8143004340023009302AA02232946FC
:1029C4002046FEF7C5FA08B1FEF77AFF4FF47A7095
:1029D400FFF7C8FF0023009303AA022329462046D9
:1029E400FEF7B6FA08B1FEF76BFF4FF47A70FFF703
:1029F400B9FF0023009304AA022329462046FEF7C8
:102A0400A7FA08B1FEF75CFF0A20FFF7ABFF00232B
:102A1400009305AA022329462046FEF799FA08B135
:102A2400FEF74EFF1420FFF79DFF034800F040F926
:102A340007B030BD4944000059440000F0B585B0EA
:102A440005460C4600F0ECF820B900F0EFF8124807
:102A540000F02EF9FF2311488DF80F3000F028F90B
:102A64000F4F0435230601D505B0F0BD00230093B4
:102A74000DF10F02012321462846FEF769FA0646A6
:102A84003220FFF76FFF1EB92146384600F022FCC2
:102A94000134E4B2E6E700BF494400007744000093
:102AA4008C44000030B585B000238DF80E303523FA
:102AB4008DF80F30041D012300930DF10F02204601
:102AC4000D46FEF745FA08B1FEF7FAFE01230DF1B3
:102AD4000E0229462046FEF74EFA08B1FEF7F0FE34
:102AE4009DF80E300D4A0E4D0E4C0F489909117089
:102AF4000E4AC3F301111170C3F3810203F00303FF
:102B04002A70237000F0E6FB2978094800F0E2FB04
:102B14002178084800F0DEFB05B030BDDF08002056
:102B2400DD080020DC080020AF440000DE0800209F
:102B3400BA440000C6440000F0B5324B1B78032BA6
:102B440089B00E465CD1304B1B78032B58D12F4BE8
:102B54001B78032B54D100241A230694ADF81C408F
:102B64008DF81730051D0127009701230DF1170279
:102B740031462846FEF7ECF908B1FEF7A1FE06AA95
:102B84000123224431462846FEF7F5F908B1FEF741
:102B940097FE9DF8173001340133062C8DF8173059
:102BA400E2D1BDF91840BDF91A60BDF91C7018488E
:102BB40000F07EF83B4632462146164800F08AFB78
:102BC400204600F075FA144B002200F0B9F90446CF
:102BD40038460D4600F06CFA0F4B002200F0B0F9B5
:102BE400CDE90201304600F063FA0B4B002200F0FD
:102BF400A7F92246CDE900012B46084800F06AFBFC
:102C040009B0F0BDDD080020DC080020DE0800204B
:102C1400D0440000DF4400000000B03FFE44000048
:102C2400014B1878704700BFE00800201FB5104C16
:102C34002378A3B929210B22CDE900124FF0CD60EE
:102C44004FF48172CDE9020269460A481A46FDF73B
:102C54008BFD08B1FEF734FE0748FDF7FFFF074878
:102C64000123237004B0BDE8104000F021B800BF78
:102C7400E0080020C8450000CC4500001E450000C7
:102C840040F22401C2F20001096800F000B880B5E6
:102C94000B468DF803000DF103000121012200F021
:102CA40020F800289DF8030008BF4FF0FF3008BD4E
:102CB40038B5044640F22400C2F2000005682046FC
:102CC40001F0E7F902462846214601F0D3F9013024
:102CD4001EBF0A20BDE83840FFF7D2BF4FF0FF30D7
:102CE40038BDF8B51D4617460C460646184601F091
:102CF400A3F9002803D407FB04F2A24201D2002066
:102D0400F8BD2846314601F0B5F9B0FBF4F0F8BD42
:102D14000020B4EE400AF1EE10FA68BF01207047BB
:102D240010EE100A20F00040A0F1FF40B0FA80F04D
:102D34004009704710EE100A4100B1F17F4F8941FC
:102D4400494210F0FF4018BF01200840704710EEC0
:102D5400100AC00F704710EE101ACA0D6FF0FE0370
:102D640053FA82F212F1FE0F12D3C1F3C752024496
:102D7400501EFD2804D821F0FF4040EAC25005E06F
:102D840001F00040012AA8BF00F1FF4000EE100A44
:102D9400704710EE101AC1F3C752FF2A11BF002A60
:102DA400002101607047CA0D6FF07D0353FA82F26F
:102DB4007E2363F3DE5100EE101A026070470000B8
:102DC40010B510EE103A4FF0FF3000EBD350FD2851
:102DD40010EE902A54D86FF0FE0000EBD25010F1A0
:102DE400FE0F4DD323F0004003F0004C82425FD22B
:102DF400D90DC9B24FF6FF7EC0F27F0E21B103EAAE
:102E04000E0000F5000407E0B0FA80F1A1F1080318
:102E140000FA03F4C1F10801C2F3C75020B102EA79
:102E24000E0202F5000206E0B2FA82F0A0F10803F5
:102E34009A40C0F1080081420ADDA31A02D49442E8
:102E440001D109E0234601395C008142F5DC0146E9
:102E5400A01A04D4944203D100EE90CA0DE0204697
:102E6400B0FA80F2083A9040891A002926DD013927
:102E7400604400EBC15000EE900AB0EE600A10BD51
:102E8400B4EE400AF1EE10FA15D6F4EE600AF1EE53
:102E940010FAF2D622F0004233F0004000D152B9C9
:102EA400B0F1FF4F18BF002A0DD1DFED090AE4E7A6
:102EB40008BF00EE10CAF0EE400ADEE7C1F10101DE
:102EC400C8400021D4E7B2F1FF4FF4D08CE700BF33
:102ED4000000C07F10EE100AC10D4FF0FF3252FA0D
:102EE40081F2C0F3C751FE2A20D27E2906D8BFEE54
:102EF400000A0028A8BF9FED110A7047952988BFD2
:102F040070477F390022CFF680720A4102404FF4A5
:102F14000003CB4000FA01F14902114618BF1944DD
:102F24000028A8BF114600EE101A7047002908BFF8
:102F340000F0004000EE100A704700BF00000000DF
:102F4400F0B540F2FF7681EA030C16EA115E1EBF6B
:102F5400B64516EA1355B54252D021EA465141F41A
:102F64008011A1FB024723EA465343F48013AE4485
:102F7400A0FB03650CF0004C36197D41A1FB03470F
:102F840047F10003A0FB0217F619654153F1000352
:102F9400094218BF46F0010640F2FE74B3F5007F03
:102FA40013D2AEF5806EA64523D24CEA0331280332
:102FB40041EA155140EA16503203450872F10042C5
:102FC40050F1000051EB0E51F0BDAEF2FF3EA645AC
:102FD4000FD24CEAC321E80241EA555140EA565067
:102FE400F202450872F1004250F1000051EB0E511B
:102FF400F0BD1EEA0E0F2DD50CF000410020F0BDEF
:1030040016EA115F04BF01F000410020004218BF1E
:1030140041F0010116EA135F04BF03F000430022EC
:10302400124218BF43F0010306EA1354B44218BF16
:10303400B64503D00CF000410020F0BD21F0004162
:1030440023F00043B1EB065F0CD8B3EB065F09D85D
:1030540041B13BB10CF0004141F0FE4141F470013B
:103064000020F0BD40F20001C7F6F8710020F0BD69
:10307400420015D2120ED2F19E02202A05D200027D
:1030840040F00040D04000217047203207D30102B5
:1030940041F0004161FA02F0D1404840704702DD3E
:1030A4000020002170476FF000000146704700BF08
:1030B40010F0004160B148BF40420A0D02F21D42C7
:1030C400B0FA80F3D21A9840C30A400503EB0251C8
:1030D400704700BFC1B1B1FA81F3D3F1BD02994089
:1030E40010FA03FC18BF41F00101D3F1200330FAB8
:1030F40003F31943D2054B0642EB112038BF704746
:1031040008BF20F00100704768B1B0FA80F398401E
:10311400D3F19D02D205430642EB102038BF70471D
:1031240008BF20F00100704701F000428B1AA3F1A0
:103134006051B1F5801F0ADBB1F17F6F09D242EA19
:10314400C102C10071F1004142EB5070704710465A
:10315400704701285B4113F5001F02D842F0FF407D
:103164007047C90041EA5070104340F4800040F0B9
:103174008040704710B582B0044600698DF807108E
:1031840078B1D4E900239A4231D26269531C636155
:103194008154D4E90501884229D1204600F02CF855
:1031A40025E0E06850B1D4E9002C62451FD2531CDD
:1031B400B3EB0C0318BF0B46835418E0A06858B156
:1031C400D4E9002C624512D2531CB3EB0C0318BF94
:1031D400CBB240F822300AE0236A43B1D4E90001BB
:1031E400884204D20DF10701204601229847206845
:1031F4000130206002B010BD4269002A08BF704748
:1032040010B50446036A002B1CBF216998470020AF
:10321400606110BD012AB8BF704770B514460D46F1
:10322400064630462946FFF7A5FF013CF9D870BD94
:10323400CB0648BF704789054CBF30212021FFF7DA
:10324400E9BF70B514460D46064600F0D9FF0146A5
:1032540030462A462346BDE8704000F000B82DE908
:10326400F04F03AF8DB047F83C3C91460C46064600
:1032740000F0FEFE0546EB46073020F00700ADEBFC
:103284000008C546A7F1380A50460021242200F060
:1032940087FF43F2CF20C0F2000047E907406FF0F8
:1032A400004047F8340C47F8146C47F8205C47F8A2
:1032B400288C5046494657F83C2C00F021F8DD464E
:1032C400A7F10C04A546BDE8F08F436A0846012126
:1032D400FFF707BD83B000B582B0844603A80EC0D3
:1032E40040F22400C2F2000003AA00680192614681
:1032F400FFF7A7FF02B0BDE8004003B0704700002D
:103304002DE9F84F2DED0A8B8CB004928946834643
:103314000020CBF800000DF1150002909FEDBDAA2E
:103324009FEDBDCAB2EE048AB7EE00BA19F8011BCC
:10333400252906D0002900F0A9855846FFF71AFF71
:10334400F4E70026494619F8012BA2F12003102BBB
:103354000DD88020DFE803F0091B1B191B1B1B156C
:103364001B1B32181B101B1B120040200DE05E2A91
:103374000DD14FF4805008E0102006E04FF40070A7
:1033840003E04FF4004000E020200643DAE701F1B7
:103394000109A2F13000C0B209284FF000001CD886
:1033A40019F8011B00EB800002EB40003038A1F15A
:1033B4003002D2B20A2A0A46F2D30EE0049850F838
:1033C400042B0490002A104648BF5042102303EAFD
:1033D400D26216434A7801F102092E2A0DD14946D8
:1033E40011F8012B2A2A0AD1049999F8012051F8DD
:1033F400045B049109F1020916E000251CE0A2F126
:103404003003DBB20025092B13D811F8013B05EB7F
:10341400850902EB4902A2F13005A3F13002D2B2D0
:103424000A2A1A46F1D38946002D58BF46F48076FD
:1034340002E046F480768946A2F16801CBB2C90164
:1034440041EA5301C9B209292AD8DFE801F0121E62
:10345400082929290529290519F8012B20E04946BD
:1034640011F8012B6C2A15D199F8012009F10209F0
:103474000DE0494611F8012B682A0ED199F8012074
:1034840009F1020946F008060AE019F8012B46F092
:10349400020605E046F0010601E046F0040689460E
:1034A40020EAE078462A1FDDA2F16300152830D80F
:1034B400DFE810F06000170046002300A2011600A8
:1034C4001700160016001600160070008400500045
:1034D400160016007F0016004A001600160037007A
:1034E40024E746F4804633E0442A0ADD452A25D001
:1034F400462A7FF41BAF46F40056474646F400685C
:103504007DE1252A40F05B8258462521FFF732FEF3
:103514000CE7472A00F06E81582A7FF407AF46F47F
:103524000056F0054FEA066048BF26F4007643F2E1
:103534005801782A08BF43F2780146E046F4005661
:10354400474646F480685AE1F00548BF26F4007601
:1035540000203CE03006232101EAE070039046F4A9
:103564008076049A002152F8040B049208250DF188
:10357400160CDDE00498A8F1010A10F8044B04903D
:10358400584631465246FFF753FE58462146FFF748
:10359400F1FDADE1049951F8040B04913107DBF816
:1035A400001000F11082B20752BF0160002206C071
:1035B400BCE6049850F8044B049078E1F0054FEA17
:1035C400066048BF26F40076302101EAE0700390DB
:1035D40070044FEA8670049C04D4002808D4231D88
:1035E40000210BE000281BD454F8040BC1171DE084
:1035F400E01D20F0070404F1080361680DF1160CC6
:103604002068740704931BD416F008041CBFC0B2CE
:1036140000212EE09976967E0000C842000000004A
:10362400E01D20F00704616854F8080B0DF1160C36
:10363400730708D4330744BF40F3C01140B205E018
:1036440080B2002115E040F3C03100B20029049497
:1036540007DBB3060BD47306039C48BF20240394F2
:1036640007E00023404263EB01012D2300E02B23FC
:103674000393F30548BF26F40076F30558BF0125EC
:1036840000276E2A22DD6F3A092A00F27380DFE8F0
:1036940002F0054F717171712371714F50EA01028B
:1036A40068D0C20842EA41720624134664F3DF007C
:1036B4000CF80700013752EAD1004FEAD1014FEA72
:1036C400D20040EA41721846EFD153E0582A2FD075
:1036D400642A18BF692A4DD150EA01024AD0CDF8B4
:1036E40004800C46804630040AD507F00300032802
:1036F40006D10DF1160A2C200AF80700013701E063
:103704000DF1160A40460A22002300F0FDFB00EBEF
:103714008002A8EB420242F030020AF80720013787
:10372400D8F109020022A241DBD3DDF8048021E0B4
:10373400002750EA01021DD0B20444F2D852C0F26C
:1037440000025CBF44F2E852C0F20002030943EAFB
:10375400017400F00F002346105C0CF807000137D9
:1037640054EA11104FEA11114FEA141040EA01749F
:103774001846EED1039A4FF0FF30FF2A88BF013874
:10378400E91B21EAE17A07EB0A01A8EB0104150021
:1037940018BF0444B00505D4584631462246FFF705
:1037A40047FD0024FF2D04D9290A5846FFF7E2FCFF
:1037B40000E01DB158462946FFF7DCFC5846314667
:1037C4002246FFF735FD584630215246FFF722FDC9
:1037D400012F029D05DBE95D5846FFF7CBFC013F55
:1037E400F9D8F0067FF5A2AD584620212246FFF70E
:1037F40011FD9BE546F40056474646F440685FEAEF
:10380400C85058BF062508F4406004990731A0F554
:10381400406021F00704B0FA80F0002D08BF45098C
:10382400D4E90001FFF780FC09EE100A04F1080056
:103834000490B0EE490AFFF773FA80B1B5EE409AEE
:10384400F1EE10FA1DD55FEA884044F29F64C0F29D
:1038540000045CBF44F2A464C0F2000424E0B0EEAF
:10386400490AFFF755FA00284BD05FEA884044F232
:10387400B364C0F200045CBF44F2B764C0F2000455
:1038840012E018F4005044F2A962C0F2000244F2BB
:10389400AE61C0F20001104612BF541C08464C1C15
:1038A4005FEA886148BF044628F48076B846002C55
:1038B40004BF44F29864C0F20004F005204602D428
:1038C40000F0E7FB02E0294600F0F9FB054626F488
:1038D4000076A8EB000A584631465246FFF7A8FC8A
:1038E40035B114F8011B5846FFF744FC013DF8D1EB
:1038F400F0067FF51BAD584620215246FFF78AFC9F
:1039040014E5B0EE490AFFF715FA002808BF1FEDC9
:10391400BD9AB0EE490AFFF71AFA040018BFB1EED7
:10392400499AB0EE490A0BA8FFF733FA0B9800EB5B
:10393400400046F26761C6F2666150FB01F0002C5C
:1039440018BF48F06008811001EBD0700B90B5EE01
:10395400409AF1EE10FA16D0013000F0B7FAB4EE46
:10396400409AF1EE10FA0B9806DD411C0B910230DF
:10397400F3E70B9801380B9000F0A8FAB4EE409AE4
:10398400F1EE10FAF5D40B9908F44064B4F5806FA5
:1039940007D0B4F5406F09D18D42C8BF11F1050FAE
:1039A40004DC262912D189EE0A9A14E05FEA485011
:1039B40040F1E4800E2940F3C0800025DEE0002AB7
:1039C4007FF4B4AC75E20170FFF7B0BC484200F07C
:1039D4007DFA29EE009AB5EE409AF1EE10FA23D062
:1039E400B0EE490AFFF79CF900287FF427AF0B9843
:1039F400B4EE489AF1EE10FA08DB89EE089A013029
:103A0400B4EE489AF1EE10FAF7DA0B90B4EE4B9A52
:103A1400F1EE10FA08D529EE089A0138B4EE4B9A63
:103A2400F1EE10FAF7D40B90B4F5406FAA4608BF34
:103A3400AAF1010A002D18BF5546684200F046FA63
:103A44004FF0FF30FFF787F939EE009AB4EE489A49
:103A5400F1EE10FAA1BF89EE089A0B9801300B9091
:103A6400002D41D008F40860B0F5006F3ED1102D50
:103A7400A8BF1025284600F029FA29EE000A10EE06
:103A8400100AFFF7F5FA044608432DD00E464CF60B
:103A9400CD42CCF6CC42A4FB0201531E04FB03111D
:103AA40006FB0211C20742EA5102C90741EA50006B
:103AB400D0F1993049F69910C1F69910AA4690416F
:103AC40014D3204631460A22002300F01DFA04468E
:103AD4000E460A22002300F017FABAF1010A05D0B3
:103AE40052EA0300EDD001E04FF0000A08F0800034
:103AF40050EA0A00A7EB0A000B9A0CBF471F871F66
:103B040001245FEAC84040F1A68045F25650C5F250
:103B1400555052FB00F000EBD07000EB4000101A3F
:103B24000230DFE800F003909603900029EE089A33
:103B3400013A0B92013F02248BE0C843284410252C
:103B44001028B8BF05465FEA086217D4B0B128460A
:103B540000F0BCF9B6EE001A09EE001AB0EE410A04
:103B6400FFF7B8F9F0EE480AFFF72AF9B5EE400A74
:103B7400F1EE10FA01D1013DE9D10B9968421039F7
:103B84008142C8BF084600F0A1F94FF0FF30FFF7AB
:103B9400E2F839EE009A0B98013000F097F90B988F
:103BA400B4EE409AF1EE10FA0195A8BF0130002856
:103BB40013D4112815D3A0F110010B91C0F11000FA
:103BC40000F084F929EE000A10EE100AFFF750FA0B
:103BD40005460E469FEDBA9A11E000250B95002686
:103BE4000DE019EE100AFFF743FA05460E46FFF7FB
:103BF40071FA00EE100A39EE409A00200B9028F476
:103C0400806A44F2F850C0F200000830002400F149
:103C14000801013405C8281A76EB02000846F6D2DA
:103C2400019AB81A08F0800111434FF0FF321CBF0B
:103C34001146013A18F0600F08BF0A460B99511A51
:103C44000844071B22E029EE0C9A023A0B92023F29
:103C540003242AEAEA7A0392CDF804A028F4006A3D
:103C640019EE100AFFF704FA05460E46FFF732FA7A
:103C740000EE100A18F0600F18BF013F39EE409AA9
:103C8400039800F01FF96328C8BF013F27EAE778CB
:103C9400CDF80CA01AF4047FDDF804A00DD1012F97
:103CA40044F2F857C0F200070BDB58462021FFF717
:103CB40061FAB8F10108F8D103E044F2F857C0F210
:103CC4000007039988064FEA416003D4002808D509
:103CD400202103E02D21002858BF2B215846FFF74F
:103CE40049FA0398C00609D4B8F1000F06D0584623
:103CF4003021FFF73FFAB8F10108F8D1013C07EB96
:103D0400C40006C8681A76EB0200302006D36D1A88
:103D1400964101306B1A76EB0203F8D2C1B25846D1
:103D2400FFF728FA002CE9D1039D2C050BD50B983D
:103D3400012808DB01380B9058463021FFF71AFAA6
:103D44000B980028F6DC05F0800050EA0A0043D006
:103D540058462E21FFF70EFA1020BAF1100FB8BF03
:103D64005046002C0B9920EAE077384648BF401AA9
:103D740000F0ACF8BAF1010F22DB29EE000A10EED4
:103D8400100AFFF775F904460D463E46013E44F21B
:103D9400F850C0F2000000EBC60006C8601A75EBCC
:103DA4000200302006D3641A95410130631A75EB82
:103DB4000203F8D2C1B25846FFF7DCF9002EE5D170
:103DC400BAEB0700039D07D0A7EB0A04584630213D
:103DD400FFF7D0F90134F9D368054AD54521A80481
:103DE40058BF65215846FFF7C5F90B980028584677
:103DF40004DB2B21FFF7BEF90B9805E02D21FFF71B
:103E0400B9F90B9840420B90642815DB48F21F5413
:103E1400C5F2EB14A0FB0401302000EB511158460D
:103E2400FFF7A8F90B9850FB04F14A1102EBD1718A
:103E3400642201FB12000B9046F26764C6F26664CA
:103E440050FB04F0811001EBD07000F130015846B2
:103E5400FFF790F90B9850FB04F18A1002EBD17133
:103E640001EB8101A0EB410000F130015846FFF75E
:103E740081F9B8F1000F3FF459AA58462021FFF701
:103E840079F9B8F10108F8D1FFF750BADBF80C0062
:103E940028B1DBE9001291423CBF0022425458464B
:103EA400FFF7AAF9DBF800000CB0BDEC0A8BBDE803
:103EB400F88F5846FFF7A0F94FF0FF30F4E700BF42
:103EC40000000000002848BF40427047B7EE001AC7
:103ED4000028B0EE410A11D0014648BF4142B7EE76
:103EE400000A44F2BC62C0F20002CB071CBF92ED90
:103EF400002A20EE020A04324908F6D1002848BFFD
:103F040081EE000A70470000002B35D129B9B0FBBF
:103F1400F2FC0CFB120260467047914215D22DE967
:103F2400F041B2FA82F39A409940D3F1200C30FA6E
:103F34000CFC51EA0C01984000F04EF8280036FAC7
:103F440003F200210023BDE8F081F0B5B1FBF2FCDF
:103F54000CFB1211B2FA82F39A409940D3F1200675
:103F640030FA06F63143984000F036F861462800EE
:103F74003200DA400023F0BDF3B5B3FA83FC4908FC
:103F84005FEA300013FA0CF3DCF1200432FA04F493
:103F940023430CB41A0000F01FF80CBC33FA0CF3E2
:103FA400DCF11F0C35FA0CF518BF013D03BCA5FB71
:103FB400026705FB0377801BB941904271EB030C48
:103FC40005D3821A71EB0303681C0021F0BD0200C3
:103FD4000B0028000021F0BD940D4FF6C2752D0290
:103FE400B5FBF4F4D60A013604FB04F5A5FB06562A
:103FF400F64306EB0416550832BF0027770801354F
:1040040005FB1677A6FB07477F0807EBC6371400A6
:104014001500E7FB02457F1B4D1C0400E7FB01452F
:1040240005FB1206A64284BF013DB618964224BF82
:104034000135B61A704700BF40F22401C2F20001F4
:1040440040F220020968091AC2F2000218BF0121D5
:104054001268121A18BF0122114040F22802C2F25B
:1040640000021268101A18BF01200840404270472D
:10407400402070470068FEF75BBC082938BF7047D2
:10408400416040F6F001C2F20001086000210160C5
:1040940070470178002904BF0020704700214FF0C9
:1040A40001324358C2FA53F30431002BF9D093FA86
:1040B400A3F0B0FA80F001EBD00004387047002977
:1040C4001CBF0278002A01D10020704700B5D0F847
:1040D40000E00429034609D34FF0013CCCFA5EF218
:1040E40022B9043953F804EF0329F7D8181A4FF00A
:1040F4000132C2FA5EF292FAA2F2B2FA82F2B1EBA1
:10410400D20F88BFD108084400BD00000246F0B4B5
:104114004FF00137FB0151F8044BE51BA5431D404B
:1041240002D142F8044BF6E70439F0BC11F8013B24
:1041340002F8013B002BF9D1704700BF5AB3844603
:1041440090EA01039B071FD1830707D011F8013BB5
:1041540000F8013B013AF7D11CE08446203A09D328
:104164002DE9F007B1E8F807A0E8F807203AF9D2FA
:10417400BDE8F0071C3205D451F8043B40F8043B79
:10418400043AF9D2043205D011F8013B00F8013B9E
:10419400013AF9D16046704700220B0011001A0061
:1041A40084465AB3830704D000F8011B013AF9D1BD
:1041B40024E0C9B241EA012141EA0141202A11D394
:1041C400203A2DE9F0030B460C460D460E460F46E9
:1041D40088468946A0E8FA03203AFBD2BDE8F003FA
:1041E40020320BD0042A05D340F8041B043A05D02E
:1041F400042AF9D200F8011B013AFBD1604670474A
:1042040040F6F400C2F200000068002804BF40F247
:104214002C00C2F20000704784460020002918BF19
:10422400002A00D17047097848B2002844BF6FF0D3
:1042340001007047BCF1000F18BFCCF8001000213A
:10424400C3E90011002818BF012070477F298EBFE1
:104254006FF0010001700120704740F6F401C2F2D2
:1042640000010968002904BF40F22C01C2F20001D8
:10427400496889680A68092110477F2884BF00209B
:10428400704744F6E802C0F20002515C44F668024A
:10429400C0F20002105C08407047A0F161011A29C5
:1042A40038BF20387047A0F141011A2938BF40F0C7
:1042B400200070477F2884BF0020704744F6E8023E
:1042C400C0F20002515C44F66802C0F20002105CC5
:1042D40008407047A0F161011A2938BF203870479F
:0E42E400A0F141011A2938BF40F020007047B8
:1042F40056430000000000005A4300000000000084
:104304005F43000000000000644300000000000060
:08431400A543000000000303B3
:10431C0054450000000000008343000018000020FA
:10432C00840500204C060020540600208C0500203B
:04433C001800000065
:104340000338FDD8704700000000000000000000A6
:104350000338FDD87047505253005457494D00550B
:1043600041525400554152544500466174616C20DD
:104370006572726F720053797374656D2072657324
:10438000657400756172745F6C6F675F6261636B07
:10439000656E64004261636B656E647320666C7564
:1043A0007368656400617070001B5B306D0025737D
:1043B000001B5B313B33316D0025734C6F677320FD
:1043C00064726F70706564202825642925730D0A56
:1043D000003C25733E2025733A200020253032789A
:1043E00000202020007C002563001B5B313B333024
:1043F0006D001B5B313B33326D001B5B313B333354
:104400006D001B5B313B33346D001B5B313B33353F
:104410006D001B5B313B33366D001B5B313B33372B
:104420006D007761726E696E6700696E666F006419
:1044300065627567005465726D696E616C005254F7
:1044400054005345474745520054574920696E6907
:104450007469616C697A656400424E4F303535206D
:10446000434F4E46494755524544205355434345D3
:104470005346554C4C5900547769207363616E6EF6
:10448000696E672073746172746564000A545749D9
:10449000206465766963652064657465637465642A
:1044A000206174206164647220307825780A0020CD
:1044B0004779726F3A202564090020416363656C77
:1044C0003A2025640900204D61673A2025640A00DE
:1044D0000A0A45554C455220414E474C455300521F
:1044E00041575F583A202564095241575F593A2095
:1044F0002564095241575F5A3A2025640A00583A08
:1045000020252D31302E3266593A20252D31302E7E
:1045100032665A3A20252D31302E32660A00545721
:104520004920496E697469616C697A656420696EB5
:10453000207477692E632066696C6500690B000042
:10454000790B000030313233343536373839414257
:1045500043444546A92000000D21000059200000D9
:10456000FFFFFFFFFFFFFFFFFFFFFFFFFFFFFFFF5B
:1045700000000000000000000000D601060100005D
:10458000A9430000EA430000B1430000F2430000E9
:10459000FA430000024400000A44000012440000F4
:1045A0001A44000000000000704300002244000094
:1045B0002A4400002F44000000000000000000001A
:1045C0000338FDD8704700000000000000300040B4
:1045D000000000000100000030313233343536373E
:1045E0003839414243444546303132333435363729
:1045F00038396162636465660100000000000000F4
:104600000A0000000000000064000000000000003C
:10461000E803000000000000102700000000000078
:10462000A08601000000000040420F0000000000D2
:10463000809698000000000000E1F50500000000F1
:1046400000CA9A3B0000000000E40B540200000086
:1046500000E87648170000000010A5D4E80000002C
:1046600000A0724E1809000000407A10F35A0000B2
:104670000080C6A47E8D03000000C16FF286230077
:1046800000008A5D78456301000064A7B3B6E00DC1
:104690000000E8890423C78A286E756C6C29002DF8
:1046A000494E46002D696E66002B494E46002B6927
:1046B0006E66004E414E006E616E000000002041AB
:1046C0000000C84200401C4620BCBE4CCA1B0E5A0B
:1046D000AEC59D7499470000104800009C4700003B
:1046E00053756E646179004D6F6E64617900547525
:1046F0006573646179005765646E65736461790000
:1047000054687572736461790046726964617900F6
:10471000536174757264617900004A616E756172EB
:1047200079004665627275617279004D61726368E5
:1047300000417072696C004D6179004A756E6500C8
:104740004A756C79004175677573740053657074B0
:10475000656D626572004F63746F626572004E6FC3
:1047600076656D62657200446563656D62657200B1
:1047700000414D00504D0000256D2F25642F2579F7
:104780000025483A254D3A25530025612025622011
:104790002565202554202559004300007F42000054
:1047A0009F420000AB420000B9420000D942000025
:1047B000E5420000514200001D42000053756E00AA
:1047C0004D6F6E0054756500576564005468750040
:1047D0004672690053617400004A616E004665626A
:1047E000004D617200417072004D6179004A756E32
:1047F000004A756C0041756700536570004F637423
:10480000004E6F760044656300002E00000000003B
:104810000A4800000C4800000C4800000C4800004A
:104820000C4800000C4800000C4800000C48000038
:104830000C4800000C480000FFFFFFFFFFFFFFFFD8
:10484000FFFFFFFFFFFF0000E0460000BC47000045
:104850001A470000D9470000714700007847000060
:10486000814700008A4700002020202020202020AF
:1048700020682828282820202020202020202020D0
:104880002020202020202020481010101010101070
:104890001010101010101010848484848484848478
:1048A0008484101010101010108181818181810189
:1048B00001010101010101010101010101010101E8
:1048C0000101011010101010108282828282820277
:1048D00002020202020202020202020202020202B8
:1048E000020202101010102000070320041702011A
:0548F000085710408094
:1048F8000090D003000000000020004000000000ED
:10490800002000400000000000000000FF00000040
:10491800E4080020E8080020EC080020D446000045
:10492800D4460000D4460000D4460000D446000017
:0400000300000219DE
:00000001FF
