:1000000000800020890300007103000073030000DA
:100010007503000077030000790300000000000072
:100020000000000000000000000000007B03000052
:100030007D030000000000007F030000810300003A
:100040008303000083030000830300008303000098
:100050008303000000000000830300000000000094
:100060008303000083030000830300008303000078
:100070008303000083030000830300008303000068
:100080008303000083030000830300008303000058
:100090008303000083030000830300008303000048
:1000A00083030000830300008303000000000000BE
:1000B0000000000000000000000000000000000040
:1000C0000000000000000000000000000000000030
:1000D000000000000000000000000000830300009A
:1000E0000000000000000000000000000000000010
:1000F0000000000000000000000000000000000000
:1001000000000000000000000000000000000000EF
:1001100000000000000000000000000000000000DF
:1001200000000000000000000000000000000000CF
:1001300000000000000000000000000000000000BF
:1001400000000000000000000000000000000000AF
:10015000000000000000000000000000000000009F
:10016000000000000000000000000000000000008F
:10017000000000000000000000000000000000007F
:10018000000000000000000000000000000000006F
:10019000000000000000000000000000000000005F
:1001A000000000000000000000000000000000004F
:1001B000000000000000000000000000000000003F
:1001C000000000000000000000000000000000002F
:1001D000000000000000000000000000000000001F
:1001E000000000000000000000000000000000000F
:1001F00000000000000000000000000000000000FF
:100200003A493B480A1A02D0072291438D463949A0
:1002100039480A1A06D00722914381F3098802223D
:1002200082F3148835483649364A00F041F836489A
:100230003649374A00F03CF836483749374A00F02B
:1002400037F837483749384A00F032F837483849E4
:10025000384A00F02DF838483849394A00F028F873
:1002600038483949394A00F023F8394839490022D9
:1002700000F036F838483949002200F031F83848A3
:100280003849091A00F062FD374A90472548264947
:10029000884205D00268043003B4904703BCF7E7F6
:1002A00000208646EC4600200021304A9047FEE7B9
:1002B000884214D0521A12D003460B43134303242E
:1002C000234206D1036804300B600431043AF9D1AB
:1002D0007047037801300B700131013AF9D1704752
:1002E000884202D002700130FAE770470080002097
:1002F000007000200080002000800020080E000018
:100300000000002004000020D0030000D003000003
:10031000640D0000080E0000000000200000002016
:10032000640D0000640D0000640D0000640D000009
:10033000640D0000640D0000640D0000640D0000F9
:10034000060E00000C0E0000040000200400002037
:1003500004000020280000202800002028000020A1
:1003600028000020281000209F030000DF08000064
:10037000FEE7FEE7FEE7FEE7FEE7FEE7FEE7FEE755
:10038000FEE7FEE700F002B8FFF7FCBF0B484FF0B6
:100390000701884385460A488047FFF731BF09486F
:1003A00009490A4A884207D0521A05D00378013019
:1003B0000B700131013AF9D1704700000080002034
:1003C000B10B0000640D00000000002000000020C0
:1003D00082B0124B1B680193114B1B680093019B69
:1003E000102B17D1009B032B12D801A252F823F037
:1003F0000104000005040000090400000D040000D1
:10040000012308E0002306E0002304E0002302E0CB
:10041000002300E00023184602B0704730010010AE
:100420003401001000B583B00190019B1B68184691
:1004300000F0D8F80346002B04D105494FF4F670BC
:1004400000F00AFA4FF0A043184603B05DF804FB31
:10045000640D000000B585B00190084611461A46AB
:1004600003468DF803300B468DF8023013468DF8A5
:10047000013001AB1846FFF7D5FF03909DF803202C
:100480009DF802305B001A439DF801309B001A432F
:100490009DF818301B0242EA03019DF81C301B0432
:1004A000019A1943039B02F5E07243F8221000BF42
:1004B00005B05DF804FB00B585B0039000230193FF
:1004C000002300930023012201210398FFF7C2FFBC
:1004D00000BF05B05DF804FB00B585B003900B4686
:1004E0008DF80B309DF80B30002201920022009213
:1004F000002200210398FFF7ADFF00BF05B05DF8B3
:1005000004FB00B585B0019001AB1846FFF78AFFE8
:100510000390019B012202FA03F31946039800F0AD
:100520004CF800BF05B05DF804FB00B585B0019044
:1005300001AB1846FFF776FF0390019B012202FAF8
:1005400003F31946039800F042F800BF05B05DF8C8
:1005500004FB00B585B0019001AB1846FFF762FFC0
:100560000390039BD3F804350293029BDA43019B6B
:10057000012101FA03F31A40039BC3F80825019BEC
:1005800001229A40029B1A40039BC3F80C2500BF2E
:1005900005B05DF804FB00B583B001900091009BAD
:1005A000002B03D10198FFF7C0FF02E00198FFF78D
:1005B000A8FF00BF03B05DF804FB82B0019000917A
:1005C000019B009AC3F8082500BF02B0704782B0B3
:1005D00001900091019B009AC3F80C2500BF02B066
:1005E0007047000000B585B00190019B5B09029344
:1005F00000230393029B002B0FD1FFF7E9FE034674
:10060000002B01D00E4B00E00E4B0393039B43F0F5
:10061000407343F46053039300BF019B03F01F0337
:100620000193039A019B22FA03F303F00103002BC9
:1006300014BF01230023DBB2184605B05DF804FBAC
:100640003F8E16F0FFC1177000B583B00190019B7B
:10065000032B03D90749472000F0FEF8064A019B07
:1006600013441B7801211846FFF795FF00BF03B024
:100670005DF804FB940D0000F00D000000B583B0A0
:100680000023019305E00198FFF7DEFF019B013392
:100690000193019B032BF6D900BF00BF03B05DF8A7
:1006A00004FB000000B583B00190019B032B03D92C
:1006B00007495F2000F0D0F8064A019B13441B78DD
:1006C0001846FFF746FF00BF03B05DF804FB00BF0C
:1006D000940D0000F00D000000B583B000230193DD
:1006E00009E0094A019B13441B781846FFF7E3FE13
:1006F000019B01330193019B032BF2D9FFF7BEFF4E
:1007000000BF03B05DF804FBF00D000000B583B03E
:10071000002301930AE0094A019B13441B7803213B
:100720001846FFF7D9FE019B01330193019B032B70
:10073000F1D900BF00BF03B05DF804FBF40D000069
:1007400000B583B00190019B03F00103002B01D0A1
:10075000FFF7C2FF019B03F00203002B01D0FFF75C
:10076000D5FF00BF03B05DF804FB000086B0039026
:100770000291019201238DF817309DF81730204A1D
:10078000039B13601E4A029B53601D4A019B9360AA
:10079000039B44F20102934212D0039B44F20202F3
:1007A000934220D1019B164AD360154BDB681B682E
:1007B000134A9361124BDB685B68114AD36112E004
:1007C000019B0F4A13610E4B1B699B680C4A5361D6
:1007D0000B4B1B691B680A4A9361094B1B695B68D9
:1007E000074AD36100BF72B600BF00BF9DF8173043
:1007F000DBB2002BFAD162B600BF00BF06B0704773
:100800000400002000B587B003900291019272B6F7
:1008100000BF039B44F20102934207D0039B44F2C2
:100820000202934205D1019B059303E0019B0493CF
:1008300000E000BF074B1B6803F00103002B00D052
:1008400000BE019A02990398FFF790FF00BF07B01E
:100850005DF804FBF0ED00E000B585B003460091C3
:10086000ADF80630BDF806300293009B039302AB4F
:100870001A46002144F20200FFF7C4FF00BF05B092
:100880005DF804FB00B585B00190019B002B0AD0F8
:10089000074B43F001030393019B9B010293039BCE
:1008A0000298984700E000BF05B05DF804FB00BF68
:1008B000000E000000B583B00190019B002B0AD010
:1008C0004FF47A70FFF7DEFF019B013B0193019B20
:1008D000002BF5D100E000BF03B05DF804FB00B5CC
:1008E00083B00120FFF72CFF002301930AE0019B56
:1008F0001846FFF7D7FE4FF4FA70FFF7DBFF019BB6
:1009000001330193019B032BF1DDEDE7BFF34F8F23
:1009100000BF064BDB6803F4E0620449044B134359
:10092000CB60BFF34F8F00BF00BFFDE700ED00E0DD
:100930000400FA0582B01E4B1B6801931D4B1B6817
:100940000093019B0D2B14D1009B022B0DD0009B1B
:10095000022B0CD8009B002B03D0009B012B02D054
:1009600005E0012321E001231FE001231DE0012315
:100970001BE0019B102B17D1009B032B12D801A267
:1009800052F823F095090000990900009D09000024
:10099000A1090000012308E0012306E0012304E08F
:1009A000012302E0012300E00023184602B0704753
:1009B000300100103401001082B01E4B1B680193FF
:1009C0001D4B1B680093019B0D2B14D1009B022B28
:1009D0000DD0009B022B0CD8009B002B03D0009B5A
:1009E000012B02D005E0012321E001231FE00123B8
:1009F0001DE001231BE0019B102B17D1009B032B53
:100A000012D801A252F823F0190A00001D0A0000B2
:100A1000210A0000250A0000012308E0012306E066
:100A2000012304E0012302E0012300E00023184633
:100A300002B07047300100103401001082B01E4B2C
:100A40001B6801931D4B1B680093019B0D2B14D158
:100A5000009B022B0DD0009B022B0CD8009B002B7F
:100A600003D0009B012B02D005E0012321E00123EC
:100A70001FE001231DE001231BE0019B102B17D178
:100A8000009B032B12D801A252F823F09D0A00000C
:100A9000A10A0000A50A0000A90A0000012308E03D
:100AA000012306E0012304E0012302E0012300E02A
:100AB0000023184602B070473001001034010010C6
:100AC00082B01E4B1B6801931D4B1B680093019B5A
:100AD0000D2B14D1009B022B0DD0009B022B0CD8A8
:100AE000009B002B03D0009B012B02D005E00023CC
:100AF00021E000231FE001231DE001231BE0019BF7
:100B0000102B17D1009B032B12D801A252F823F00F
:100B1000210B0000250B0000290B00002D0B00000D
:100B2000002308E0002306E0002304E0012302E0A4
:100B3000012300E00023184602B070473001001086
:100B40003401001008B5FFF7BBFF0346002B07D0A8
:100B50004FF010234FF08042D3F80832C2F85835D6
:100B600000BF08BD00BF044BD3F80034002BFAD0FF
:100B700000BF00BF704700BF00E0014000B583B078
:100B80000190054A019BC2F80435FFF7EBFF00BF57
:100B900003B05DF804FB00BF00E00140024B034AD4
:100BA0001A6000BF704700BF000000200090D00313
:100BB00008B5FFF7BFFE0346002B0ED04FF0804371
:100BC0000022C3F80C214FF080430022C3F810210B
:100BD0004FF080430022C3F83825FFF7EDFE0346AF
:100BE000002B76D04FF08053574AD3F80434C2F824
:100BF00020354FF08053544AD3F80834C2F82435D6
:100C00004FF08053504AD3F80C34C2F828354FF0D7
:100C100080534D4AD3F81034C2F82C354FF080532E
:100C2000494AD3F81434C2F830354FF08053464A5D
:100C3000D3F81834C2F834354FF08053424AD3F811
:100C40001C34C2F840354FF080533F4AD3F820346B
:100C5000C2F844354FF080533B4AD3F82434C2F8ED
:100C600048354FF08053384AD3F82834C2F84C3511
:100C70004FF08053344AD3F82C34C2F850354FF03B
:100C80008053314AD3F83034C2F854354FF0805392
:100C90002D4AD3F83434C2F860354FF080532A4AD5
:100CA000D3F83834C2F864354FF08053264AD3F86D
:100CB0003C34C2F868354FF08053234AD3F84034AF
:100CC000C2F86C354FF080531F4AD3F84434C2F851
:100CD0007035FFF7B3FE0346002B0DD04FF0804375
:100CE000D3F8003403F00103002B05D04FF080430C
:100CF0006FF00102C3F80024FFF724FF4FF0102328
:100D0000D3F80032002B05DB4FF01023D3F8043268
:100D1000002B15DA0120FFF731FF4FF010231222CC
:100D2000C3F80022FFF71EFF4FF010231222C3F872
:100D30000422FFF717FF0020FFF720FFFFF7E6FD73
:100D4000FFF72CFF00BF08BD00C00040082938BFD6
:100D500070470022C0E9002140F22401C2F20001E4
:040D60000860704770
:100D64002E2E2F2E2E2F2E2E2F2E2E2F2E2E2F2E9A
:100D74002E2F6D6F64756C65732F6E7266782F6895
:100D8400616C2F6E72665F6770696F2E6800000079
:100D94002F686F6D652F7562756E74752F446F774C
:100DA4006E6C6F6164732F446576696365446F7715
:100DB4006E6C6F61642F6E5246355F53444B5F31E6
:100DC400372E312E305F646464653536302F636F9F
:100DD4006D706F6E656E74732F626F617264732FC2
:100DE400626F617264732E63000000000D0E0F10B9
:100DF4000B0C181900000000000000000338FDD897
:020E0400704735
:040E08000090D00383
:04000003000003896D
:00000001FF
