:100000000000022089030000710300007303000058
:100010007503000077030000790300000000000072
:100020000000000000000000000000007B03000052
:100030007D030000000000007F030000810300003A
:100040008303000083030000AD0F00008303000062
:100050008303000083030000830300008303000088
:100060008303000083030000830300008303000078
:100070008303000083030000830300008303000068
:100080008303000083030000830300008303000058
:100090008303000083030000830300008303000048
:1000A0008303000083030000830300008303000038
:1000B0008303000083030000000000000000000034
:1000C0008303000083030000830300008303000018
:1000D0008303000083030000830300008303000008
:1000E000830300000000000000000000000000008A
:1000F00000000000830300000000000083030000F4
:1001000000000000000000000000000000000000EF
:1001100000000000000000000000000000000000DF
:1001200000000000000000000000000000000000CF
:1001300000000000000000000000000000000000BF
:1001400000000000000000000000000000000000AF
:10015000000000000000000000000000000000009F
:10016000000000000000000000000000000000008F
:10017000000000000000000000000000000000007F
:10018000000000000000000000000000000000006F
:10019000000000000000000000000000000000005F
:1001A000000000000000000000000000000000004F
:1001B000000000000000000000000000000000003F
:1001C000000000000000000000000000000000002F
:1001D000000000000000000000000000000000001F
:1001E000000000000000000000000000000000000F
:1001F00000000000000000000000000000000000FF
:100200003A493B480A1A02D0072291438D463949A0
:1002100039480A1A06D00722914381F3098802223D
:1002200082F3148835483649364A00F041F836489A
:100230003649374A00F03CF836483749374A00F02B
:1002400037F837483749384A00F032F837483849E4
:10025000384A00F02DF838483849394A00F028F873
:1002600038483949394A00F023F8394839490022D9
:1002700000F036F838483949002200F031F83848A3
:100280003849091A02F00CFF374A90472548264999
:10029000884205D00268043003B4904703BCF7E7F6
:1002A00000208646EC4600200021304A9047FEE7B9
:1002B000884214D0521A12D003460B43134303242E
:1002C000234206D1036804300B600431043AF9D1AB
:1002D0007047037801300B700131013AF9D1704752
:1002E000884202D002700130FAE770470000022015
:1002F00000E0012000000220000002207C35000008
:100300000000002024000020E4030000E4030000BB
:10031000403100007C35000000000020000000207B
:100320004031000040310000403100004031000009
:1003300040310000403100004031000040310000F9
:100340007A350000A03500002400002024000020A1
:1003500024000020A8070020A8070020A8070020EC
:10036000A8070020A8270020B1030000F129000001
:10037000FEE7FEE7FEE7FEE7FEE7FEE7FEE7FEE755
:10038000FEE7FEE700F002B8FFF7FCBF0F484FF0B2
:100390000701884385460E4880470E48016841F4AE
:1003A00070010160BFF34F8FBFF36F8FFFF728BF5E
:1003B00009480A490A4A884207D0521A05D00378E8
:1003C00001300B700131013AF9D170470000022071
:1003D000752C000088ED00E0403100000000002096
:0403E00000000020F9
:1003E40000B583B00190019B1B68184600F0C3F868
:1003F4000346002B04D10B494FF4F67000F00DFDB9
:10040400019B1B681F2B02D84FF0A04306E0019B01
:100414001B6803F01F02019B1A60034B184603B0CC
:100424005DF804FB403100000003005000B585B0C6
:100434000190084611461A4603468DF803300B46D0
:100444008DF8023013468DF8013001AB1846FFF7E2
:10045400C7FF03909DF803209DF802305B001A4308
:100464009DF801309B001A439DF818301B0242EAA4
:1004740003019DF81C301B04019A1943039B02F5E8
:10048400E07243F8221000BF05B05DF804FB00B52C
:1004940085B00390002301930023009300230122DD
:1004A40001210398FFF7C2FF00BF05B05DF804FB0C
:1004B40000B585B003900B468DF80B309DF80B30DA
:1004C4000022019200220092002200210398FFF7EB
:1004D400ADFF00BF05B05DF804FB00B585B0019029
:1004E40001AB1846FFF77CFF0390019B012202FA3F
:1004F40003F31946039800F02AF800BF05B05DF82D
:1005040004FB00B585B0019001AB1846FFF768FF06
:100514000390019B012202FA03F31946039800F0A9
:1005240020F800BF05B05DF804FB00B583B001906E
:100534000091009B002B03D10198FFF7E2FF02E03A
:100544000198FFF7CAFF00BF03B05DF804FB82B057
:1005540001900091019B009AC3F8082500BF02B0E6
:10056400704782B001900091019B009AC3F80C255A
:1005740000BF02B0704784B00190019B5B090293F5
:1005840000230393029B002B03D0029B012B04D076
:1005940007E04FF0FF33039303E040F2FF3303938C
:1005A40000BF019B03F01F030193039A019B22FAEE
:1005B40003F303F00103002B14BF01230023DBB278
:1005C400184604B07047000000B583B00190019B49
:1005D400032B03D90749472000F01FFC064A019B5F
:1005E40013441B7801211846FFF79FFF00BF03B097
:1005F4005DF804FB70310000CC31000000B583B01D
:100604000023019305E00198FFF7DEFF019B01330E
:100614000193019B032BF6D900BF00BF03B05DF823
:1006240004FB000000B583B00023019309E0094AEC
:10063400019B13441B781846FFF729FF019B0133E4
:100644000193019B032BF2D9FFF7D8FF00BF03B03E
:100654005DF804FBCC31000000B583B000230193A6
:100664000AE0094A019B13441B7803211846FFF74B
:100674001FFF019B01330193019B032BF1D900BFA1
:1006840000BF03B05DF804FBD031000000B583B0B7
:100694000190019B03F00103002B01D0FFF7C2FF7F
:1006A400019B03F00203002B01D0FFF7D5FF00BF2D
:1006B40003B05DF804FB000086B003900291019240
:1006C40001238DF817309DF81730204A039B1360DF
:1006D4001E4A029B53601D4A019B9360039B44F294
:1006E4000102934212D0039B44F20202934220D1AE
:1006F400019B164AD360154BDB681B68134A936150
:10070400124BDB685B68114AD36112E0019B0F4A0C
:1007140013610E4B1B699B680C4A53610B4B1B699D
:100724001B680A4A9361094B1B695B68074AD361DA
:1007340000BF72B600BF00BF9DF81730DBB2002BBC
:10074400FAD162B600BF00BF06B070472400002093
:1007540000B583B002900091019244F20100714609
:100764006A4600F003F803B000BD00BF00B587B0CF
:1007740003900291019272B600BF039B44F20102FE
:10078400934207D0039B44F20202934205D1019B9A
:10079400059303E0019B049300E000BF074B1B6833
:1007A40003F00103002B00D000BE019A02990398C4
:1007B400FFF782FF00BF07B05DF804FBF0ED00E037
:1007C40084B00190019B9B680393019BDA68039BAF
:1007D400D31A184604B0704782B001900B468DF8C6
:1007E4000330019B1A68019BDB68019989880B40DF
:1007F40013449DF803201A70019BDB685A1C019B6B
:10080400DA6000BF02B0704784B003900B460192D7
:10081400ADF80A30039B1A68039B9968BDF80A3047
:100824000B44039989880B4013441A78019B1A706E
:1008340000BF04B0704700B583B001900091009AE6
:1008440000210198FFF7E0FF019B9B685A1C019B64
:100854009A6000BF03B05DF804FB84B0039002917A
:100864001346ADF80630029B002B01D10E231DE088
:10087400BDF80630002B07D0BDF806305A1EBDF86F
:1008840006301340002B01D009230FE0039B029A8A
:100894001A60BDF80630013B9AB2039B9A80039B11
:1008A40000229A60039B0022DA600023184604B0F9
:1008B400704700B583B001900B468DF80330019862
:1008C400FFF77EFF0246019B9B889A4207D89DF85A
:1008D400033019460198FFF77FFF002300E004234B
:1008E400184603B05DF804FB00B583B00190009195
:1008F4000198FFF765FF0346002B05D00099019886
:10090400FFF799FF002300E00523184603B05DF8C4
:1009140004FB000000B587B00390029113468DF8E4
:10092400073000230593039B1B781A46114B9B5CED
:10093400002B09D0039B04339DF807200299184625
:1009440001F03AFD05900FE0039B1B781A46094B12
:100954009B5C002B08D1039B0C339DF80720029964
:10096400184600F0C9FE0590059B184607B05DF8CF
:1009740004FB00BF8400002000B585B00190002373
:100984008DF80F30019B1B781A46114B9B5C002B92
:1009940008D0019B0433184601F0CEFD03468DF8C0
:1009A4000F300EE0019B1B781A46094B9B5C002B11
:1009B40007D1019B0C33184600F026FF03468DF83F
:1009C4000F309DF80F30184605B05DF804FB00BFEA
:1009D4008400002000B587B00390029113468DF87F
:1009E400073000230593039B1B781A46114B9B5C2D
:1009F400002B09D0039B04339DF807200299184665
:100A040001F0B2FD05900FE0039B1B781A46094BD9
:100A14009B5C002B08D1039B0C339DF807200299A3
:100A2400184600F049FF0590059B184607B05DF88D
:100A340004FB00BF8400002084B00190019B9B68EC
:100A44000393019BDA68039BD31A184604B07047DA
:100A540000B587B001900091019B1B78022B45D013
:100A6400022B6ADC002B52D0012B66D1019B1B7A2E
:100A7400002B05D1012233493348FFF7ABFF5DE07A
:100A8400019B5B681B7819463048FFF712FF0590FD
:100A9400059B002B0AD001238DF80C30059B049391
:100AA4002B4B1B6803AA104698470DE02748FFF715
:100AB400C3FF0346002B07D000238DF80C30244BD2
:100AC4001B6803AA104698472048FFF7B5FF034662
:100AD4001E4A9288934205D801221A491A48FFF700
:100AE40079FF2BE01B4B01221A7027E002238DF8BB
:100AF4000C30019BDB680493012212491248FFF772
:100B040069FF134B1B6803AA1046984716E0124965
:100B14001248FFF7E9FE0346002B05D101220E49D6
:100B24000948FFF7F7FE09E003238DF80C30084B62
:100B34001B6803AA1046984700E000BF00BF07B037
:100B44005DF804FB4C000020000000205000002051
:100B5400440000204D0000204800002060000020D8
:100B640030B591B00390029101928DF803303C4A64
:100B7400019B1360029B002B01D107236DE0029BB4
:100B84001968029B5B689BB21A463648FFF765FEFC
:100B94000F900F9B0E930E9B002B01D00E9B5CE0DD
:100BA400029B9968029BDB689BB21A462E48FFF7AA
:100BB40054FE0F900F9B0D930D9B002B01D00D9BAA
:100BC4004BE02A4B04AC1D460FCD0FC495E80F0033
:100BD40084E80F00039B5B690A93039B1B7C002B37
:100BE40014BF01230023DBB28DF824309DF80330B9
:100BF4008DF82C30039B5B7C002B01D00E2300E08E
:100C040000238DF82530039BDB680693039B9B68C8
:100C14000793039B1B680593039B5B68049304ABD6
:100C2400134A1946134800F05FF90F900F9B0C9379
:100C34000C9B002B01D00C9B0FE00F4B00221A7071
:100C4400039B1B68B3F1FF3F06D001220B490948FF
:100C5400FFF7C0FE034600E00023184611B030BD84
:100C6400440000205000002060000020D431000027
:100C7400550A0000000000204D0000204C00002018
:100C840000B587B00190019B002B03D11449CA2001
:100C940000F0C3F8134B1B788DF8173001991248F4
:100CA400FFF722FE04909DF81730002B12D00D4B55
:100CB40000221A7001220D490D48FFF78BFE0390A4
:100CC400039B0293029B002B04D0054AD621029871
:100CD400FFF73EFD049B184607B05DF804FB00BF18
:100CE400F43100004D000020500000204C00002092
:100CF4000000002000B585B003468DF807309DF84C
:100D0400073019461048FFF7D4FD0390039B002BCE
:100D140015D10E48FFF730FE034683F00103DBB222
:100D2400002B0CD00A490848FFF7DEFD0346002BD0
:100D340005D1012206490548FFF7ECFD0390039B0A
:100D4400184605B05DF804FB600000200000002098
:100D54004800002072B600BF034B1B680133024AEF
:100D6400136000BF704700BF70000020064B1B6873
:100D7400013B054A1360044B1B68002B01D162B68A
:100D840000BF00BF704700BF7000002000B583B0F3
:100D9400019000F025F80346012B03D004494320B9
:100DA40000F03BF8FFF7D6FF00BF03B05DF804FB8B
:100DB4005C32000000B583B003468DF8073000F0C4
:100DC4000FF80346012B03D00449512000F025F805
:100DD400FFF7CCFF00BF03B05DF804FB5C320000FA
:100DE40084B0EFF305830193019BC3F308030393DA
:100DF400039B002B0DD1EFF314830093009B02930C
:100E0400029B03F00103002B0CBF01230023DBB280
:100E140000E00123184604B0704700B585B00346CE
:100E24000091ADF80630BDF806300293009B0393A1
:100E340002AB1A46002144F20200FFF797FC00BF00
:100E440005B05DF804FB000000B589B00190009185
:100E5400009B0793019B1B788DF80C30019B5B680A
:100E64000493019B9B68DBB28DF81430019BDB6813
:100E74000693074A079B52F823300649079A51F80C
:100E8400221003AA1046984700BF09B05DF804FB7E
:100E9400740000207C00002000B589B0019000910E
:100EA400009B0793019B1B788DF80C30019B5B68BA
:100EB4000493019B9B68DBB28DF81430019BDB68C3
:100EC4000693074A079B52F823300649079A51F8BC
:100ED400221003AA1046984700BF09B05DF804FB2E
:100EE400740000207C00002030B58FB00390029184
:100EF4000192039B1B780C9326490C9B019A41F8A1
:100F04002320029B1A6924490C9B41F82320029B4D
:100F14005B7F1946214A0C9B13440A461A70029BB4
:100F240004AC1D460FCD0FC495E80F0084E80F00F4
:100F34000C9B089300230D93039B1B781A46174BB5
:100F44009B5C002B0DD0039B181D019B002B01D033
:100F5400134A00E0002204AB194601F0C7F90D90D2
:100F640014E0039B1B781A460C4B9B5C002B0DD1A1
:100F7400039B03F10C00019B002B01D0094A00E004
:100F8400002204AB194600F003FB0D900D9B18469C
:100F94000FB030BD740000207C00002084000020CD
:100FA4004D0E00009D0E000008B5064B1B68002B7B
:100FB40003D105495120FFF730FF024B1B689847C6
:100FC40008BD00BF88000020C832000082B0019034
:100FD400019B044A934201D1034B00E000231846CD
:100FE40002B07047002000408800002000B587B0A0
:100FF40001900091019B002B03D118497720FFF742
:101004000CFF0198FFF7E2FF0490049B002B1ED015
:1010140000238DF817300020FFF7B8FE049B1B79DE
:10102400002B03D001238DF8173005E0049B009AB0
:101034001A60049B01221A710020FFF7BBFE9DF881
:101044001730002B03D011230393039B02E00023EA
:101054000393039B184607B05DF804FBC8320000F5
:1010640082B003468DF807309DF90730002B0CDB66
:101074009DF8073003F01F0205499DF907305B090D
:10108400012000FA02F241F8232000BF02B07047A9
:1010940000E100E082B0034600918DF807309DF92D
:1010A4000730002B0ADB009BDAB20C499DF90730AC
:1010B4005201D2B20B4483F800230BE0009BDAB256
:1010C40007499DF8073003F00F03043B5201D2B2E5
:1010D4000B441A7600BF02B0704700BF00E100E085
:1010E40000ED00E082B00190019B1B0B5BB218463F
:1010F40002B0704700B583B003460A468DF8073046
:1011040013468DF806309DF80630072B03D908499D
:101114006B20FFF782FE9DF806209DF907301146EB
:101124001846FFF7B7FF00BF03B05DF804FB00BF2C
:101134003033000000B583B003468DF807309DF9C5
:1011440007301846FFF78CFF00BF03B05DF804FBBF
:1011540084B001900B46ADF80230BDF80230019A1C
:10116400134400221A60BDF80230019A13441B682C
:101174000393039B00BF04B0704782B001900B46F9
:10118400ADF80230BDF80230019A13441B68002BFD
:1011940014BF01230023DBB2184602B0704782B0AB
:1011A40001900091019B009AC3F8042300BF02B090
:1011B400704782B001900091019BD3F80423009BF7
:1011C4001340002B14BF01230023DBB2184602B0E6
:1011D400704782B001900091019B009AC3F80823E4
:1011E40000BF02B0704784B00190019BD3F88034F3
:1011F4000393019B039AC3F88024039B184604B00D
:10120400704782B00190019B0422C3F8002500BFFF
:1012140002B0704784B0039002910192039B019A3B
:10122400C3F81425039B029AC3F80C2500BF04B02D
:10123400704784B0039002910192039B029AC3F811
:101244000825039B019AC3F8102500BF04B070471A
:1012540082B00190019BD3F81835DBB2184602B076
:10126400704782B001900B468DF803309DF803203F
:10127400019BC3F81C2500BF02B0704782B00190E7
:101284000B468DF803309DF80330019A1344012274
:101294001A6000BF02B0704782B001900B468DF80F
:1012A400033013468DF802309DF803209DF8023078
:1012B4001343DBB21A46019BC3F86C2500BF02B08E
:1012C400704782B001900091019B009AC3F82425D5
:1012D40000BF02B07047000000B583B00190019BCD
:1012E4001B68184600F093F80346002B04D10B4901
:1012F4004FF4F670FFF791FD019B1B681F2B02D87A
:101304004FF0A04306E0019B1B6803F01F02019B02
:101314001A60034B184603B05DF804FB6033000009
:101324000003005000B585B00190084611461A46E6
:1013340003468DF803300B468DF8023013468DF8C2
:10134400013001AB1846FFF7C7FF03909DF8032057
:101354009DF802305B001A439DF801309B001A434C
:101364009DF818301B0242EA03019DF81C301B044F
:10137400019A1943039B02F5E07243F8221000BF5F
:1013840005B05DF804FB00B585B00390002301931C
:10139400002300930023012201210398FFF7C2FFD9
:1013A40000BF05B05DF804FB00B585B003900B46A3
:1013B4008DF80B309DF80B30002201920022009230
:1013C400002200210398FFF7ADFF00BF05B05DF8D0
:1013D40004FB00B585B0019001AB1846FFF77CFF14
:1013E4000390019B012202FA03F31946039800F0CB
:1013F40004F800BF05B05DF804FB82B001900091D1
:10140400019B009AC3F8082500BF02B0704784B05E
:101414000190019B5B09029300230393029B002B21
:1014240003D0029B012B04D007E04FF0FF3303935A
:1014340003E040F2FF33039300BF019B03F01F035B
:101444000193039A019B22FA03F303F00103002B97
:1014540014BF01230023DBB2184604B0704700B563
:1014640083B001900091009B1B68B3F1FF3F09D04A
:10147400009B1B681846FFF7ACFF009B1B681846CF
:10148400FFF781FF009B5B68B3F1FF3F05D0009B32
:101494005B6800211846FFF787FF019B1A68009BD1
:1014A4009B6919461046FFF70CFF019B1868009BC7
:1014B400597D009B1B7D1A46FFF7EEFE019B1868C1
:1014C400009B1968009B5B681A46FFF7A3FE009B0C
:1014D4001B7D012B22D1009B9B68B3F1FF3F05D0FC
:1014E400009B9B6800211846FFF75EFF009BDB68AA
:1014F400B3F1FF3F09D0009BDB681846FFF769FF93
:10150400009BDB681846FFF73EFF019B1868009BB1
:10151400D968009B9B681A46FFF78BFE00BF03B097
:101524005DF804FB00B583B001900B468DF80330E1
:10153400019B1B684FF48E711846FFF709FE019B4F
:101544001B684FF4A2711846FFF702FE019B1B684B
:101554000E491846FFF723FE019B1B681846FFF748
:10156400C1FD03461A469DF8033019461046FFF79D
:10157400C1FD019B1B681846FFF7B4FD03461846DE
:10158400FFF7D8FD00BF03B05DF804FB8000020044
:1015940000B587B0039002910192029B002B03D106
:1015A4002D49AA20FFF739FC039B1B791A462C23EB
:1015B40002FB03F3294A1344059300230493059B78
:1015C40093F82A30002B03D008230493049B3EE0B5
:1015D400039B1A68039B1B791946214B53F821304E
:1015E40019461046FFF702FD0346002B03D01123D2
:1015F4000493049B2BE002990398FFF730FF059BAB
:10160400019A5A60029B1A69059B1A60059B5B68E4
:10161400002B05D0029B1B7F19460398FFF782FF1E
:10162400039B1B681846FFF7ECFD059B00229A619B
:10163400059B0022DA61059B002283F82920059B83
:1016440000225A61059B012283F82A20049B184634
:1016540007B05DF804FB00BF903300009000002049
:10166400F433000000B585B0019000914FF48E7101
:101674000198FFF76DFD009B9A68009B1B6A134459
:101684001B788DF80F30009B1B6A5A1C009B1A6252
:101694009DF80F3019460198FFF7E3FD00BF05B030
:1016A4005DF804FB00B585B001900091009B5B6977
:1016B400039316E0009B93F82830DBB2002B01D093
:1016C400002314E04FF48E710198FFF756FD034692
:1016D40083F00103DBB2002BECD100990198FFF7F2
:1016E400C1FF009B1B6A039A9A42EBD80123184658
:1016F40005B05DF804FB000000B587B003900291CB
:101704000192039B1B791A462C2302FB03F33C4AE8
:1017140013440493049B93F82A30012B04D03949D1
:101724004FF48C70FFF779FB029B002B04D13549F1
:1017340040F21910FFF771FB019B002B04D13149D2
:101744004FF48D70FFF769FB039800F05DF80346D2
:10175400002B03D011230593059B4CE0049B019AB5
:101764005A61049B029A9A60049B00221A62049BA9
:10177400002283F8282000230593039B1B684FF461
:101784008E711846FFF7E4FC039B1B68082118467A
:10179400FFF774FD039B1B6804991846FFF762FF6B
:1017A400049B5B68002B25D1039B1B680499184696
:1017B400FFF778FF034683F00103DBB2002B02D06E
:1017C4000F23059313E000BF039B1B684FF48E7136
:1017D4001846FFF7D2FC034683F00103DBB2002B6B
:1017E400F2D1039B1B680C211846FFF747FD049BAD
:1017F40000225A61059B184607B05DF804FB00BF40
:10180400900000209033000082B00190019B1B796E
:101814001946074A2C2301FB03F3134414331B68B2
:10182400002B14BF01230023DBB2184602B070471B
:101834009000002000B583B00190019B1B684FF419
:1018440092711846FFF784FC019B1B684FF4847166
:101854001846FFF77DFC019B1B6800211846FFF723
:101864000DFD00BF03B05DF804FB10B582B001901C
:101874000091009B9B69002B08D14FF4847101985F
:10188400FFF766FC0198FFF7E3FC13E04FF4847163
:101894000198FFF75DFC009BDA68009B5B6AD41833
:1018A4000198FFF7D5FC03462370009B5B6A5A1C22
:1018B400009B5A6202B010BD00B589B0039002913A
:1018C4000192039B1B791A462C2302FB03F37F4AE4
:1018D40013440693039B1B7919467C4A2C2301FB72
:1018E40003F313442A331B78012B04D078494FF4B3
:1018F400B670FFF792FA029B002B04D1744940F2B0
:101904006D10FFF78AFA019B002B04D170494FF444
:10191400B770FFF782FA00238DF81F30069B5B68CF
:10192400002B06D0039B1B684FF401711846FFF788
:1019340050FC069B9B69002B15D0069BDB69002B92
:101944000ED0069B5B68002B06D0039B1B684FF4EC
:1019540001711846FFF723FC11230593059BB0E0A2
:1019640001238DF81F309DF81F3083F00103DBB293
:10197400002B0CD0069B019A9A61069B029ADA60AE
:10198400069B00225A62069B0022DA6105E0069B50
:10199400029A1A61069B019ADA61069B93F8293030
:1019A40083F00103DBB2002B09D09DF81F3083F0D4
:1019B4000103DBB2002B02D00398FFF73BFF069B29
:1019C4005B68002B73D1039B1B684FF4A27118460C
:1019D400FFF7BEFB039B1B684FF492711846FFF799
:1019E400CCFB03468DF81330039B1B684FF48471C2
:1019F4001846FFF7C2FB03468DF81230039B1B68A1
:101A04004FF4A2711846FFF7B8FB03468DF8113066
:101A14009DF8123083F00103DBB2002B0DD09DF84A
:101A2400113083F00103DBB2002B06D09DF8133094
:101A340083F00103DBB2002BCCD19DF81330002BD3
:101A44000FD19DF81130002B0BD1039B1B68069915
:101A54001846FFF70AFF069B9A69069B5B6A9A423F
:101A6400B8D8069B00229A619DF81330002B03D04E
:101A740003230593059B24E09DF81130002B03D02C
:101A84000F230593059B1CE0069B93F82930002B3C
:101A940006D0039B1B6800211846FFF7EFFB0DE0FF
:101AA400039B1B6804211846FFF7E8FB06E0039B31
:101AB4001B684FF401711846FFF771FB002305936F
:101AC400059B184609B05DF804FB00BF9000002098
:101AD4009033000000B589B0039002910192012374
:101AE4008DF81030029B0693019B0593039B5B6862
:101AF400039A116804AA1046984700BF09B05DF81C
:101B040004FB00B587B00190009100238DF80830E4
:101B1400009B0493019B9B680393019B00225A61E1
:101B2400019B5B68019A116802AA1046984700BF9E
:101B340007B05DF804FB00B58BB0019000914FF441
:101B440000710198FFF735FB0346002B39D04FF4A1
:101B540092710198FFF711FB0346002B31D04FF42B
:101B640092710198FFF7F4FA4FF401710198FFF7AD
:101B740030FB009B93F8293083F00103DBB2002B88
:101B840003D004210198FFF779FB02238DF80C3070
:101B94000198FFF728FB03460693009B9B69059376
:101BA400009BDB680493009B00229A61009B002247
:101BB400DA61009B5B68009A116803AA1046984793
:101BC40052E004210198FFF7F4FA0346002B4BD0AE
:101BD4004FF484710198FFF7D0FA0346002B43D0E9
:101BE40000990198FFF741FE009B9A69009B5B6A8C
:101BF4009A4239D1009BDB69002B19D0009BDB682A
:101C04000993009B5B6A0893009BDA69009B9A61C5
:101C1400009B1A69009BDA60009B0022DA61009B3A
:101C240000225A62099A08990098FFF753FF1BE0B3
:101C3400009B93F8293083F00103DBB2002B03D01F
:101C440004210198FFF71AFB4FF401710198FFF783
:101C5400C0FA009B00229A61009B596A009BDB68D2
:101C64001A460098FFF736FF4FF48E710198FFF77C
:101C740084FA0346002B24D0009B5B690793009BE6
:101C84001B6A079A9A420DD9009B93F82830DBB25D
:101C940083F00103DBB2002B04D000990198FFF715
:101CA400E1FC0EE04FF48E710198FFF751FA009BAE
:101CB4005B69002B05D0009B5B6919460098FFF710
:101CC40020FF4FF4A2710198FFF757FA0346002B47
:101CD4001CD04FF4A2710198FFF73AFA009B93F8D5
:101CE4002930002B03D000210198FFF7C7FA009B8D
:101CF4009B69002B0AD0009B00229A61009B596AC1
:101D0400009BDB681A460098FFF7E4FE00BF0BB0A7
:101D14005DF804FB08B503490348FFF70CFF00BF57
:101D240008BD00BF900000200020004082B00346A0
:101D34008DF807309DF90730002B0CDB9DF8073038
:101D440003F01F0205499DF907305B09012000FAE1
:101D540002F241F8232000BF02B0704700E100E026
:101D640082B0034600918DF807309DF90730002BAF
:101D74000ADB009BDAB20C499DF907305201D2B25A
:101D84000B4483F800230BE0009BDAB207499DF86B
:101D9400073003F00F03043B5201D2B20B441A760E
:101DA40000BF02B0704700BF00E100E000ED00E0BA
:101DB40082B00190019B03F06043B3F1005F0CBF5C
:101DC40001230023DBB2184602B0704782B00190B1
:101DD400019B1B0B5BB2184602B0704700B583B081
:101DE40003460A468DF8073013468DF806309DF8F1
:101DF4000630072B03D908496B20FFF70EF89DF82E
:101E040006209DF9073011461846FFF7A9FF00BFC9
:101E140003B05DF804FB00BFF833000000B583B0E5
:101E240003468DF807309DF907301846FFF77EFF0B
:101E340000BF03B05DF804FB84B001900B46ADF81D
:101E44000230BDF80230019A134400221A60BDF832
:101E54000230019A13441B680393039B00BF04B030
:101E6400704782B001900B46ADF80230BDF80230E5
:101E7400019A13441B68002B14BF01230023DBB217
:101E8400184602B0704782B001900091019BD3F8CC
:101E94000022009B1A43019BC3F8002200BF02B03A
:101EA400704782B001900091019BD3F80022009BFF
:101EB400DB431A40019BC3F8002200BF02B0704705
:101EC40082B001900091019B009AC3F8042300BFE3
:101ED40002B0704782B001900091019B009AC3F850
:101EE400082300BF02B0704784B00190019BD3F86F
:101EF40080340393019B039AC3F88024039B184600
:101F040004B0704782B00190019B0822C3F80025F9
:101F140000BF02B0704784B0039002910192039B0A
:101F2400029AC3F80C25039B019AC3F8142500BF39
:101F340004B0704784B0039002910192039B029A0B
:101F4400C3F80825039B019AC3F8102500BF04B009
:101F5400704782B001900B468DF803309DF8033032
:101F6400019A134401221A6000BF02B0704782B084
:101F740001900B468DF8033013468DF802309DF81E
:101F840003209DF802301343DBB21A46019BC3F8C9
:101F94006C2500BF02B0704782B001900091019B94
:101FA400009AC3F8242500BF02B0704784B00390A0
:101FB40002910192029A039BC3F84425039B019A60
:101FC400C3F8482500BF04B0704782B00190019B5C
:101FD400D3F84C35184602B0704784B00390029190
:101FE4000192029A039BC3F83425039B019AC3F818
:101FF400382500BF04B0704782B00190019BD3F82C
:102004003C35184602B0704700B583B00190019B7F
:102014001B68184600F093F80346002B04D10B49C3
:102024004FF4F670FEF7F9FE019B1B681F2B02D8D4
:102034004FF0A04306E0019B1B6803F01F02019BC5
:102044001A60034B184603B05DF804FB2834000003
:102054000003005000B585B00190084611461A46A9
:1020640003468DF803300B468DF8023013468DF885
:10207400013001AB1846FFF7C7FF03909DF803201A
:102084009DF802305B001A439DF801309B001A430F
:102094009DF818301B0242EA03019DF81C301B0412
:1020A400019A1943039B02F5E07243F8221000BF22
:1020B40005B05DF804FB00B585B0039000230193DF
:1020C400002300930023012201210398FFF7C2FF9C
:1020D40000BF05B05DF804FB00B585B003900B4666
:1020E4008DF80B309DF80B300022019200220092F3
:1020F400002200210398FFF7ADFF00BF05B05DF893
:1021040004FB00B585B0019001AB1846FFF77CFFD6
:102114000390019B012202FA03F31946039800F08D
:1021240004F800BF05B05DF804FB82B00190009193
:10213400019B009AC3F8082500BF02B0704784B021
:102144000190019B5B09029300230393029B002BE4
:1021540003D0029B012B04D007E04FF0FF3303931D
:1021640003E040F2FF33039300BF019B03F01F031E
:102174000193039A019B22FA03F303F00103002B5A
:1021840014BF01230023DBB2184604B0704700B526
:1021940083B001900091009B1B68B3F1FF3F09D00D
:1021A400009B1B681846FFF7ACFF009B1B68184692
:1021B400FFF781FF009B5B68B3F1FF3F05D0009BF5
:1021C4005B6800211846FFF787FF019B1A68009B94
:1021D4009B6919461046FFF7DFFE019B1868009BB8
:1021E400597D009B1B7D1A46FFF7C1FE019B1868B1
:1021F400009B1968009B5B681A46FFF78CFE009BE6
:102204001B7D012B22D1009B9B68B3F1FF3F05D0BE
:10221400009B9B6800211846FFF75EFF009BDB686C
:10222400B3F1FF3F09D0009BDB681846FFF769FF55
:10223400009BDB681846FFF73EFF019B1868009B74
:10224400D968009B9B681A46FFF774FE00BF03B071
:102254005DF804FB00B583B001900B468DF80330A4
:10226400019B1B684FF488711846FFF7E5FD019B3D
:102274001B684FF490711846FFF7DEFD019B1B6845
:102284004FF492711846FFF7D7FD019B1B684FF47A
:10229400A2711846FFF7D0FD019B1B684FF4AC7187
:1022A4001846FFF7C9FD019B1B680F491846FFF745
:1022B40007FE019B1B681846FFF788FD03461A4674
:1022C4009DF8033019461046FFF788FD019B1B68F3
:1022D4001846FFF77BFD03461846FFF79FFD00BF36
:1022E40003B05DF804FB00BF1003420000B587B0E3
:1022F400039002910192029B002B03D12B49CF2022
:10230400FEF78BFD039B1B791A461346DB0013442F
:102314009B00274A1344059300230493059B93F8D9
:102324002030002B03D008230493049B3AE0039B42
:102334001A68039B1B7919461E4B53F82130194622
:102344001046FEF753FE0346002B03D011230493DB
:10235400049B27E002990398FFF719FF059B019A54
:102364005A60029B1A69059B1A60059B5B68002BE7
:1023740005D0029B1B7F19460398FFF76BFF039B55
:102384001B681846FFF7BEFD059B00229A61059B5A
:102394000022DA61059B00225A61059B012283F821
:1023A4002020049B184607B05DF804FB5834000055
:1023B400BC000020BC34000000B589B00390029139
:1023C4000192039B1B791A461346DB0013449B00BE
:1023D400574A13440693069B93F82030012B04D0EC
:1023E400544940F25310FEF718FD029B002B04D110
:1023F40050494FF4AA70FEF710FD019B002B04D145
:102404004C4940F25510FEF708FD039B1B79002B45
:1024140003D1019BB3F5803F04D346494FF4AB701D
:10242400FEF7FBFC0298FFF7C3FC034683F00103AD
:10243400DBB2002B03D010230793079B73E00398B0
:1024440000F07AF80346002B03D011230793079B6F
:1024540069E0069B019A5A61069B029A9A600023DE
:102464000793039B1B684FF490711846FFF7E4FC35
:10247400039B1B684FF4AC711846FFF7DDFC039B0C
:102484001868069B9968069B5B691A46FFF78EFDE0
:10249400039B1B6808211846FFF75BFD069B5B68DE
:1024A400002B3FD1039B1B684FF490711846FFF734
:1024B400D8FC03468DF81730039B1B684FF4AC71AE
:1024C4001846FFF7CEFC03468DF816309DF81730FA
:1024D40083F00103DBB2002B06D09DF8163083F0A5
:1024E4000103DBB2002BDDD19DF81630002B02D0A6
:1024F4000F23079313E0039B1B680C211846FFF777
:1025040028FD00BF039B1B684FF4AC711846FFF70E
:10251400A8FC034683F00103DBB2002BF2D1069B37
:1025240000225A61079B184609B05DF804FB00BFFE
:10253400BC0000205834000082B00190019B1B793C
:102544001946084A0B46DB000B449B001344143322
:102554001B68002B14BF01230023DBB2184602B012
:10256400704700BFBC00002000B589B00390029101
:102574000192039B1B791A461346DB0013449B000C
:10258400864A13440593039B1B791946834A0B46D9
:10259400DB000B449B00134420331B78012B04D035
:1025A4007F494FF4D370FEF738FC029B002B04D113
:1025B4007B4940F2A710FEF730FC019B002B04D1AD
:1025C40077494FF4D470FEF728FC039B1B79002B4A
:1025D40003D1019BB3F5803F04D3714940F2A910A4
:1025E400FEF71BFC0298FFF7E3FB034683F00103AD
:1025F400DBB2002B03D010230793079BCAE0002310
:102604008DF81B30059B5B68002B06D0039B1B6871
:102614004FF404711846FFF75DFC059B9B69002B82
:1026240015D0059BDB69002B0ED0059B5B68002B46
:1026340006D0039B1B684FF404711846FFF740FC57
:1026440011230793079BA5E001238DF81B309DF808
:102654001B3083F00103DBB2002B09D0059B019AE8
:102664009A61059B029ADA60059B0022DA6105E013
:10267400059B029A1A61059B019ADA61002307936C
:10268400039B1B684FF488711846FFF7D5FB039B27
:102694001B684FF4A2711846FFF7CEFB039B1B681F
:1026A400019A02991846FFF798FC9DF81B3083F0B5
:1026B4000103DBB2002B06D0039B1B6800211846E4
:1026C400FFF747FC05E0039B1B6820211846FFF732
:1026D400DAFB039B1B791946304A0B46DB000B449B
:1026E4009B00134404331B68002B4BD1039B1B68D2
:1026F4004FF488711846FFF7B4FB03468DF8133086
:10270400039B1B684FF4A2711846FFF7AAFB03460C
:102714008DF81230039B1B684FF492711846FFF733
:10272400A0FB03468DF811309DF8133083F00103AC
:10273400DBB2002B0DD09DF8123083F00103DBB225
:10274400002B06D09DF8113083F00103DBB2002B7F
:10275400CCD1039B1B791946104A0B46DB000B4472
:102764009B001344183300221A609DF81130002B8B
:1027740001D0032307939DF81230002B09D00F23B7
:10278400079306E0039B1B684FF404711846FFF798
:1027940097FB079B184609B05DF804FBBC000020BA
:1027A4005834000000B589B00390029101920123CE
:1027B4008DF81030029B0693019B0593039B5B6885
:1027C400039A116804AA1046984700BF09B05DF83F
:1027D40004FB00B587B00190009100238DF8083008
:1027E400009B0493019B9B680393019B00225A6105
:1027F400019B5B68019A116802AA1046984700BFC2
:1028040007B05DF804FB00B589B0019000914FF466
:1028140092710198FFF725FB0346002B22D04FF459
:1028240092710198FFF708FB02238DF80830019894
:10283400FFF75AFB034605930198FFF7DDFB0346B8
:102844000493009BDB680393009B00229A61009B26
:102854000022DA61009B5B68009A116802AA1046A4
:1028640098473BE04FF488710198FFF7FAFA034662
:10287400002B33D04FF488710198FFF7DDFA0198EB
:10288400FFF7BAFB0790009B9B69079A9A4225D1F0
:10289400009BDB69002B17D0009BDB68069320218B
:1028A4000198FFF7FEFA009BDA69009B9A61009B8E
:1028B4001A69009BDA60009B0022DA61069A079984
:1028C4000098FFF76FFF09E0009B00229A61009BCC
:1028D400DB681A4607990098FFF764FF4FF4A2716A
:1028E4000198FFF7BEFA0346002B18D04FF4A271EB
:1028F4000198FFF7A1FA009B9B69002B0FD0009B66
:1029040000229A61009B0022DA610198FFF774FBB0
:102914000146009BDB681A460098FFF743FF4FF41B
:1029240090710198FFF79DFA0346002B14D04FF4E1
:1029340090710198FFF780FA0C210198FFF709FBC9
:10294400009B5B69002B07D00198FFF73EFB034611
:1029540019460098FFF73DFF4FF4AC710198FFF75B
:1029640080FA0346002B10D04FF4AC710198FFF7A6
:1029740063FA009B5B69002B07D00198FFF725FBE6
:10298400034619460098FFF724FF00BF09B05DF81D
:1029940004FB000008B503490348FFF734FF00BFF8
:1029A40008BD00BFBC0000200020004000B583B07B
:1029B4000190019B1B78022B07D1019B5B680A4A9B
:1029C4004C211846FDF7C4FE0AE0019B1B78012B3D
:1029D40006D1019B5B68044A50211846FDF7B8FEF6
:1029E40000BF03B05DF804FBC034000030B58FB005
:1029F4000120FDF74BFE224B06AC1D460FCD0FC444
:102A040095E8030084E803001E4B02934FF480739F
:102A140003931D4B04934FF48073059302A906A8F6
:102A240007231A4AFEF79CF80D900D9B0C930C9B00
:102A3400002B04D0164AA4210C98FDF789FE1548F2
:102A440000F00CFA00BF0DF107031846FEF718F961
:102A54000346002BF7D100BF9DF807301846FEF758
:102A640049F90346002BF7D19DF80730712B03D0A9
:102A74009DF80730512BE5D1074800F0EFF9FEE748
:102A840048350000E0000020E0010020B1290000EA
:102A9400C0340000203500003C350000BFF34F8FE8
:102AA40000BF064BDB6803F4E0620449044B1343A4
:102AB400CB60BFF34F8F00BF00BFFDE700ED00E028
:102AC4000400FA0582B0114B1B680193104B1B687C
:102AD4000093019B0D2B14D1009B022B0DD0009B66
:102AE400022B0CD8009B002B03D0009B012B02D09F
:102AF40005E0012306E0012304E0012302E00123B1
:102B040000E00023184602B0704700BF30010010F7
:102B14003401001082B0114B1B680193104B1B68E9
:102B24000093019B0D2B14D1009B022B0DD0009B15
:102B3400022B0CD8009B002B03D0009B012B02D04E
:102B440005E0012306E0012304E0012302E0012360
:102B540000E00023184602B0704700BF30010010A7
:102B64003401001082B0114B1B680193104B1B6899
:102B74000093019B0D2B14D1009B022B0DD0009BC5
:102B8400022B0CD8009B002B03D0009B012B02D0FE
:102B940005E0012306E0012304E0012302E0012310
:102BA40000E00023184602B0704700BF3001001057
:102BB4003401001082B0114B1B680193104B1B6849
:102BC4000093019B0D2B14D1009B022B0DD0009B75
:102BD400022B0CD8009B002B03D0009B012B02D0AE
:102BE40005E0002306E0002304E0012302E00123C2
:102BF40000E00023184602B0704700BF3001001007
:102C04003401001008B5FFF7D5FF0346002B07D0A9
:102C14004FF010234FF08042D3F80832C2F85835F1
:102C240000BF08BD00BF044BD3F80034002BFAD01A
:102C340000BF00BF704700BF00E0014000B583B093
:102C44000190054A019BC2F80435FFF7EBFF00BF72
:102C540003B05DF804FB00BF00E00140024B034AEF
:102C64001A6000BF704700BF140000200090D0031A
:102C740008B5FFF727FF0346002B0ED04FF0804323
:102C84000022C3F80C214FF080430022C3F8102126
:102C94004FF080430022C3F83825FFF73BFF03467B
:102CA400002B76D04FF080535E4AD3F80434C2F838
:102CB40020354FF080535B4AD3F80834C2F82435EA
:102CC4004FF08053574AD3F80C34C2F828354FF0EC
:102CD4008053544AD3F81034C2F82C354FF0805343
:102CE400504AD3F81434C2F830354FF080534D4A6B
:102CF400D3F81834C2F834354FF08053494AD3F826
:102D04001C34C2F840354FF08053464AD3F820347F
:102D1400C2F844354FF08053424AD3F82434C2F801
:102D240048354FF080533F4AD3F82834C2F84C3525
:102D34004FF080533B4AD3F82C34C2F850354FF04F
:102D44008053384AD3F83034C2F854354FF08053A6
:102D5400344AD3F83434C2F860354FF08053314AE2
:102D6400D3F83834C2F864354FF080532D4AD3F881
:102D74003C34C2F868354FF080532A4AD3F84034C3
:102D8400C2F86C354FF08053264AD3F84434C2F865
:102D94007035FFF7E7FE0346002B0DD04FF080435C
:102DA400D3F8003403F00103002B05D04FF0804327
:102DB4006FF00102C3F800241B4BD3F888301A4A81
:102DC40043F47003C2F88830BFF34F8F00BFBFF3E2
:102DD4006F8F00BFFFF716FF4FF01023D3F80032B8
:102DE400002B05DB4FF01023D3F80432002B15DA47
:102DF4000120FFF723FF4FF010231222C3F8002213
:102E0400FFF710FF4FF010231222C3F80422FFF73C
:102E140009FF0020FFF712FFFFF740FEFFF71EFF38
:102E240000BF08BD00C0004000ED00E040F21C01FE
:102E3400C2F20001096800F000B880B50B468DF8B5
:102E440003000DF103000121012200F01FF89DF899
:102E54000310002808BF411E084608BD38B540F2DB
:102E64001C01C2F2000104460D6800F023F9024679
:102E74002846214600F03DF801301EBF0A20BDE877
:102E84003840FFF7D3BF4FF0FF3038BDF8B51D46CB
:102E940017460C460646184600F00FF8002803D4DF
:102EA40007FB04F2A24201D20020F8BD28463146B5
:102EB40000F01FF8B0FBF4F0F8BD40F21C01C2F2C0
:102EC400000140F22002C2F2000240F21803C2F2F2
:102ED400000309681B681268091A18BF01211B1A2C
:102EE40018BF01231940101A18BF0120084040429E
:102EF4007047006800F0B7B840F2EC20C2F200005E
:102F040003210161416143F27151C0F20001816109
:102F140040F29432C2F20002C2614FF48062026253
:102F2400002282624262C262016640F29471C2F27D
:102F340000014166102181660267C2664267BFF3E1
:102F44005F8F0F2143F26052C0F20002535C00F81D
:102F5400013B0139FAD2BFF35F8F7047C268016940
:102F640091428FBFD0438068D243114408447047D4
:102F74002DE9F0411546884604464068D4E9021616
:102F840030448F1B9742414605D900F0A9F83544D7
:102F9400BFF35F8F0BE03A4600F0A2F808EB07019D
:102FA4006068ED1B2A4600F09BF8BFF35F8FE56075
:102FB400BDE8F0812DE9F843144688460546C76804
:102FC4004FF000092869A968FA43B8429ABF10442F
:102FD4004218024468683844CE1BB24238BF1646D1
:102FE400A64228BF26464146324600F079F8A86832
:102FF400F1190F1A18BF0F46BFF35F8FEF60A41BC0
:10300400B044B144DED14846BDE8F88370B50D46FE
:1030140000EB400040F2EC21C2F2000101EBC000E1
:1030240000F11806C06A02280AD0144601280DD0FF
:1030340020B93046FFF792FFA0420DD2002410E0E1
:1030440030462946BDE87040FFF7B4BF3046FFF76D
:1030540085FFA04238BF0446304629462246FFF782
:1030640087FF204670BDF8B514460D4640F2EC21AA
:10307400C2F2000106460878002808BFFFF73CFFAB
:10308400EFF311874FF0200181F311883046294670
:103094002246FFF7BBFF87F31188F8BD082938BF24
:1030A40070470022C0E9002140F2A471C2F200017D
:1030B400086070470178002904BF00207047002190
:1030C4004FF001324358C2FA53F30431002BF9D0C4
:1030D40093FAA3F0B0FA80F001EBD0000438704703
:1030E4005AB3844690EA01039B071FD1830707D094
:1030F40011F8013B00F8013B013AF7D11CE084468A
:10310400203A09D32DE9F007B1E8F807A0E8F80759
:10311400203AF9D2BDE8F0071C3205D451F8043B3B
:1031240040F8043B043AF9D2043205D011F8013BCB
:0C31340000F8013B013AF9D160467047F9
:103140002E2E2F2E2E2F2E2E2F2E2E2F2E2E2F2E9A
:103150002E2F6D6F64756C65732F6E7266782F6895
:10316000616C2F6E72665F6770696F2E6800000079
:103170002F686F6D652F7562756E74752F446F774C
:103180006E6C6F6164732F446576696365446F7715
:103190006E6C6F61642F6E5246355F53444B5F31E6
:1031A000372E312E305F646464653536302F636F9F
:1031B0006D706F6E656E74732F626F617264732FC2
:1031C000626F617264732E63000000000D0E0F10B9
:1031D0000B0C1819FFFFFFFFFFFFFFFFFFFFFFFFB3
:1031E000FFFFFFFF00000000000000000000D6010C
:1031F000060100002F686F6D652F7562756E74751E
:103200002F446F776E6C6F6164732F4465766963CA
:1032100065446F776E6C6F61642F6E5246355F53F5
:10322000444B5F31372E312E305F64646465353630
:10323000302F636F6D706F6E656E74732F6C696283
:103240007261726965732F756172742F6170705F3E
:10325000756172745F6669666F2E63002F686F6DAB
:10326000652F7562756E74752F446F776E6C6F6124
:1032700064732F446576696365446F776E6C6F6124
:10328000642F6E5246355F53444B5F31372E312EDB
:10329000305F646464653536302F636F6D706F6EB8
:1032A000656E74732F6C69627261726965732F75D4
:1032B00074696C2F6170705F7574696C5F706C619C
:1032C00074666F726D2E63002F686F6D652F756267
:1032D000756E74752F446F776E6C6F6164732F44D5
:1032E0006576696365446F776E6C6F61642F6E52AB
:1032F00046355F53444B5F31372E312E305F646467
:1033000064653536302F6D6F64756C65732F6E7222
:1033100066782F647269766572732F7372632F708B
:1033200072732F6E7266785F7072732E6300000086
:103330002E2E2F2E2E2F2E2E2F2E2E2F2E2E2F2EA8
:103340002E2F696E746567726174696F6E2F6E726D
:1033500066782F6E7266785F676C75652E68000000
:103360002E2E2F2E2E2F2E2E2F2E2E2F2E2E2F2E78
:103370002E2F6D6F64756C65732F6E7266782F6873
:10338000616C2F6E72665F6770696F2E6800000057
:103390002F686F6D652F7562756E74752F446F772A
:1033A0006E6C6F6164732F446576696365446F77F3
:1033B0006E6C6F61642F6E5246355F53444B5F31C4
:1033C000372E312E305F646464653536302F6D6F73
:1033D00064756C65732F6E7266782F64726976659A
:1033E00072732F7372632F6E7266785F7561727479
:1033F0002E630000191D00002E2E2F2E2E2F2E2E94
:103400002F2E2E2F2E2E2F2E2E2F696E7465677263
:103410006174696F6E2F6E7266782F6E7266785F58
:10342000676C75652E6800002E2E2F2E2E2F2E2EE7
:103430002F2E2E2F2E2E2F2E2E2F6D6F64756C6536
:10344000732F6E7266782F68616C2F6E72665F677D
:1034500070696F2E680000002F686F6D652F7562B0
:10346000756E74752F446F776E6C6F6164732F4443
:103470006576696365446F776E6C6F61642F6E5219
:1034800046355F53444B5F31372E312E305F6464D5
:1034900064653536302F6D6F64756C65732F6E7291
:1034A00066782F647269766572732F7372632F6EFC
:1034B0007266785F75617274652E630099290000E9
:1034C0002F686F6D652F7562756E74752F446F77F9
:1034D0006E6C6F6164732F446576696365446F77C2
:1034E0006E6C6F61642F6E5246355F53444B5F3193
:1034F000372E312E305F646464653536302F657841
:10350000616D706C65732F7065726970686572614A
:103510006C2F756172742F6D61696E2E63000000EF
:103520000D0A55415254206578616D706C652073A9
:103530007461727465642E0D00000000200D0A4550
:10354000786974210D0000000800000006000000EA
:1035500005000000070000000000000000E0D701A7
:103560000000000000005454522052454747455384
:0A357000005465726D696E616C0015
:10357C00000000000020004000000000002000407F
:10358C00000000000090D003E0020020E4020020C4
:04359C00E802002021
:04000003000003896D
:00000001FF
